{
  "_format": "hh-sol-artifact-1",
  "contractName": "MockUSDC",
  "sourceName": "contracts/MockUSDC.sol",
  "abi": [
    {
      "inputs": [
        {
          "internalType": "address",
          "name": "initialOwner",
          "type": "address"
        }
      ],
      "stateMutability": "nonpayable",
      "type": "constructor"
    },
    {
      "inputs": [
        {
          "internalType": "address",
          "name": "spender",
          "type": "address"
        },
        {
          "internalType": "uint256",
          "name": "allowance",
          "type": "uint256"
        },
        {
          "internalType": "uint256",
          "name": "needed",
          "type": "uint256"
        }
      ],
      "name": "ERC20InsufficientAllowance",
      "type": "error"
    },
    {
      "inputs": [
        {
          "internalType": "address",
          "name": "sender",
          "type": "address"
        },
        {
          "internalType": "uint256",
          "name": "balance",
          "type": "uint256"
        },
        {
          "internalType": "uint256",
          "name": "needed",
          "type": "uint256"
        }
      ],
      "name": "ERC20InsufficientBalance",
      "type": "error"
    },
    {
      "inputs": [
        {
          "internalType": "address",
          "name": "approver",
          "type": "address"
        }
      ],
      "name": "ERC20InvalidApprover",
      "type": "error"
    },
    {
      "inputs": [
        {
          "internalType": "address",
          "name": "receiver",
          "type": "address"
        }
      ],
      "name": "ERC20InvalidReceiver",
      "type": "error"
    },
    {
      "inputs": [
        {
          "internalType": "address",
          "name": "sender",
          "type": "address"
        }
      ],
      "name": "ERC20InvalidSender",
      "type": "error"
    },
    {
      "inputs": [
        {
          "internalType": "address",
          "name": "spender",
          "type": "address"
        }
      ],
      "name": "ERC20InvalidSpender",
      "type": "error"
    },
    {
      "inputs": [
        {
          "internalType": "address",
          "name": "owner",
          "type": "address"
        }
      ],
      "name": "OwnableInvalidOwner",
      "type": "error"
    },
    {
      "inputs": [
        {
          "internalType": "address",
          "name": "account",
          "type": "address"
        }
      ],
      "name": "OwnableUnauthorizedAccount",
      "type": "error"
    },
    {
      "anonymous": false,
      "inputs": [
        {
          "indexed": true,
          "internalType": "address",
          "name": "owner",
          "type": "address"
        },
        {
          "indexed": true,
          "internalType": "address",
          "name": "spender",
          "type": "address"
        },
        {
          "indexed": false,
          "internalType": "uint256",
          "name": "value",
          "type": "uint256"
        }
      ],
      "name": "Approval",
      "type": "event"
    },
    {
      "anonymous": false,
      "inputs": [
        {
          "indexed": true,
          "internalType": "address",
          "name": "previousOwner",
          "type": "address"
        },
        {
          "indexed": true,
          "internalType": "address",
          "name": "newOwner",
          "type": "address"
        }
      ],
      "name": "OwnershipTransferred",
      "type": "event"
    },
    {
      "anonymous": false,
      "inputs": [
        {
          "indexed": true,
          "internalType": "address",
          "name": "from",
          "type": "address"
        },
        {
          "indexed": true,
          "internalType": "address",
          "name": "to",
          "type": "address"
        },
        {
          "indexed": false,
          "internalType": "uint256",
          "name": "value",
          "type": "uint256"
        }
      ],
      "name": "Transfer",
      "type": "event"
    },
    {
      "inputs": [],
      "name": "MAX_SUPPLY",
      "outputs": [
        {
          "internalType": "uint256",
          "name": "",
          "type": "uint256"
        }
      ],
      "stateMutability": "view",
      "type": "function"
    },
    {
      "inputs": [
        {
          "internalType": "address",
          "name": "owner",
          "type": "address"
        },
        {
          "internalType": "address",
          "name": "spender",
          "type": "address"
        }
      ],
      "name": "allowance",
      "outputs": [
        {
          "internalType": "uint256",
          "name": "",
          "type": "uint256"
        }
      ],
      "stateMutability": "view",
      "type": "function"
    },
    {
      "inputs": [
        {
          "internalType": "address",
          "name": "spender",
          "type": "address"
        },
        {
          "internalType": "uint256",
          "name": "value",
          "type": "uint256"
        }
      ],
      "name": "approve",
      "outputs": [
        {
          "internalType": "bool",
          "name": "",
          "type": "bool"
        }
      ],
      "stateMutability": "nonpayable",
      "type": "function"
    },
    {
      "inputs": [
        {
          "internalType": "address",
          "name": "account",
          "type": "address"
        }
      ],
      "name": "balanceOf",
      "outputs": [
        {
          "internalType": "uint256",
          "name": "",
          "type": "uint256"
        }
      ],
      "stateMutability": "view",
      "type": "function"
    },
    {
      "inputs": [],
      "name": "decimals",
      "outputs": [
        {
          "internalType": "uint8",
          "name": "",
          "type": "uint8"
        }
      ],
      "stateMutability": "view",
      "type": "function"
    },
    {
      "inputs": [
        {
          "internalType": "address",
          "name": "to",
          "type": "address"
        },
        {
          "internalType": "uint256",
          "name": "amount",
          "type": "uint256"
        }
      ],
      "name": "mintTo",
      "outputs": [],
      "stateMutability": "nonpayable",
      "type": "function"
    },
    {
      "inputs": [],
      "name": "name",
      "outputs": [
        {
          "internalType": "string",
          "name": "",
          "type": "string"
        }
      ],
      "stateMutability": "view",
      "type": "function"
    },
    {
      "inputs": [],
      "name": "owner",
      "outputs": [
        {
          "internalType": "address",
          "name": "",
          "type": "address"
        }
      ],
      "stateMutability": "view",
      "type": "function"
    },
    {
      "inputs": [],
      "name": "renounceOwnership",
      "outputs": [],
      "stateMutability": "nonpayable",
      "type": "function"
    },
    {
      "inputs": [],
      "name": "symbol",
      "outputs": [
        {
          "internalType": "string",
          "name": "",
          "type": "string"
        }
      ],
      "stateMutability": "view",
      "type": "function"
    },
    {
      "inputs": [],
      "name": "totalSupply",
      "outputs": [
        {
          "internalType": "uint256",
          "name": "",
          "type": "uint256"
        }
      ],
      "stateMutability": "view",
      "type": "function"
    },
    {
      "inputs": [
        {
          "internalType": "address",
          "name": "to",
          "type": "address"
        },
        {
          "internalType": "uint256",
          "name": "value",
          "type": "uint256"
        }
      ],
      "name": "transfer",
      "outputs": [
        {
          "internalType": "bool",
          "name": "",
          "type": "bool"
        }
      ],
      "stateMutability": "nonpayable",
      "type": "function"
    },
    {
      "inputs": [
        {
          "internalType": "address",
          "name": "from",
          "type": "address"
        },
        {
          "internalType": "address",
          "name": "to",
          "type": "address"
        },
        {
          "internalType": "uint256",
          "name": "value",
          "type": "uint256"
        }
      ],
      "name": "transferFrom",
      "outputs": [
        {
          "internalType": "bool",
          "name": "",
          "type": "bool"
        }
      ],
      "stateMutability": "nonpayable",
      "type": "function"
    },
    {
      "inputs": [
        {
          "internalType": "address",
          "name": "newOwner",
          "type": "address"
        }
      ],
      "name": "transferOwnership",
      "outputs": [],
      "stateMutability": "nonpayable",
      "type": "function"
    }
  ],
  "bytecode": "0x60806040523480156200001157600080fd5b5060405162000e0838038062000e088339810160408190526200003491620002c9565b806040518060400160405280601381526020017f55534420436f696e205465737420546f6b656e00000000000000000000000000815250604051806040016040528060048152602001635553444360e01b8152508160039081620000999190620003a2565b506004620000a88282620003a2565b5050506001600160a01b038116620000db57604051631e4fbdf760e01b8152600060048201526024015b60405180910390fd5b620000e68162000106565b50620000ff816b033b2e3c9fd0803ce800000062000158565b5062000496565b600580546001600160a01b038381166001600160a01b0319831681179093556040519116919082907f8be0079c531659141344cd1fd0a4f28419497f9722a3daafe3b4186f6b6457e090600090a35050565b6001600160a01b038216620001845760405163ec442f0560e01b815260006004820152602401620000d2565b620001926000838362000196565b5050565b6001600160a01b038316620001c5578060026000828254620001b991906200046e565b90915550620002399050565b6001600160a01b038316600090815260208190526040902054818110156200021a5760405163391434e360e21b81526001600160a01b03851660048201526024810182905260448101839052606401620000d2565b6001600160a01b03841660009081526020819052604090209082900390555b6001600160a01b038216620002575760028054829003905562000276565b6001600160a01b03821660009081526020819052604090208054820190555b816001600160a01b0316836001600160a01b03167fddf252ad1be2c89b69c2b068fc378daa952ba7f163c4a11628f55a4df523b3ef83604051620002bc91815260200190565b60405180910390a3505050565b600060208284031215620002dc57600080fd5b81516001600160a01b0381168114620002f457600080fd5b9392505050565b634e487b7160e01b600052604160045260246000fd5b600181811c908216806200032657607f821691505b6020821081036200034757634e487b7160e01b600052602260045260246000fd5b50919050565b601f8211156200039d576000816000526020600020601f850160051c81016020861015620003785750805b601f850160051c820191505b81811015620003995782815560010162000384565b5050505b505050565b81516001600160401b03811115620003be57620003be620002fb565b620003d681620003cf845462000311565b846200034d565b602080601f8311600181146200040e5760008415620003f55750858301515b600019600386901b1c1916600185901b17855562000399565b600085815260208120601f198616915b828110156200043f578886015182559484019460019091019084016200041e565b50858210156200045e5787850151600019600388901b60f8161c191681555b5050505050600190811b01905550565b808201808211156200049057634e487b7160e01b600052601160045260246000fd5b92915050565b61096280620004a66000396000f3fe608060405234801561001057600080fd5b50600436106100ea5760003560e01c806370a082311161008c57806395d89b411161006657806395d89b41146101d8578063a9059cbb146101e0578063dd62ed3e146101f3578063f2fde38b1461022c57600080fd5b806370a082311461018c578063715018a6146101b55780638da5cb5b146101bd57600080fd5b806323b872dd116100c857806323b872dd14610142578063313ce5671461015557806332cb6b0c14610164578063449a52f81461017757600080fd5b806306fdde03146100ef578063095ea7b31461010d57806318160ddd14610130575b600080fd5b6100f761023f565b60405161010491906107ab565b60405180910390f35b61012061011b366004610816565b6102d1565b6040519015158152602001610104565b6002545b604051908152602001610104565b610120610150366004610840565b6102eb565b60405160128152602001610104565b6101346b033b2e3c9fd0803ce800000081565b61018a610185366004610816565b61030f565b005b61013461019a36600461087c565b6001600160a01b031660009081526020819052604090205490565b61018a610399565b6005546040516001600160a01b039091168152602001610104565b6100f76103ad565b6101206101ee366004610816565b6103bc565b61013461020136600461089e565b6001600160a01b03918216600090815260016020908152604080832093909416825291909152205490565b61018a61023a36600461087c565b6103ca565b60606003805461024e906108d1565b80601f016020809104026020016040519081016040528092919081815260200182805461027a906108d1565b80156102c75780601f1061029c576101008083540402835291602001916102c7565b820191906000526020600020905b8154815290600101906020018083116102aa57829003601f168201915b5050505050905090565b6000336102df818585610408565b60019150505b92915050565b6000336102f985828561041a565b610304858585610498565b506001949350505050565b6103176104f7565b6b033b2e3c9fd0803ce80000008161032e60025490565b610338919061090b565b111561038b5760405162461bcd60e51b815260206004820152601c60248201527f4d6f636b555344433a2045786365656473206d617820737570706c790000000060448201526064015b60405180910390fd5b6103958282610524565b5050565b6103a16104f7565b6103ab600061055a565b565b60606004805461024e906108d1565b6000336102df818585610498565b6103d26104f7565b6001600160a01b0381166103fc57604051631e4fbdf760e01b815260006004820152602401610382565b6104058161055a565b50565b61041583838360016105ac565b505050565b6001600160a01b038381166000908152600160209081526040808320938616835292905220546000198114610492578181101561048357604051637dc7a0d960e11b81526001600160a01b03841660048201526024810182905260448101839052606401610382565b610492848484840360006105ac565b50505050565b6001600160a01b0383166104c257604051634b637e8f60e11b815260006004820152602401610382565b6001600160a01b0382166104ec5760405163ec442f0560e01b815260006004820152602401610382565b610415838383610681565b6005546001600160a01b031633146103ab5760405163118cdaa760e01b8152336004820152602401610382565b6001600160a01b03821661054e5760405163ec442f0560e01b815260006004820152602401610382565b61039560008383610681565b600580546001600160a01b038381166001600160a01b0319831681179093556040519116919082907f8be0079c531659141344cd1fd0a4f28419497f9722a3daafe3b4186f6b6457e090600090a35050565b6001600160a01b0384166105d65760405163e602df0560e01b815260006004820152602401610382565b6001600160a01b03831661060057604051634a1406b160e11b815260006004820152602401610382565b6001600160a01b038085166000908152600160209081526040808320938716835292905220829055801561049257826001600160a01b0316846001600160a01b03167f8c5be1e5ebec7d5bd14f71427d1e84f3dd0314c0f7b2291e5b200ac8c7c3b9258460405161067391815260200190565b60405180910390a350505050565b6001600160a01b0383166106ac5780600260008282546106a1919061090b565b9091555061071e9050565b6001600160a01b038316600090815260208190526040902054818110156106ff5760405163391434e360e21b81526001600160a01b03851660048201526024810182905260448101839052606401610382565b6001600160a01b03841660009081526020819052604090209082900390555b6001600160a01b03821661073a57600280548290039055610759565b6001600160a01b03821660009081526020819052604090208054820190555b816001600160a01b0316836001600160a01b03167fddf252ad1be2c89b69c2b068fc378daa952ba7f163c4a11628f55a4df523b3ef8360405161079e91815260200190565b60405180910390a3505050565b60006020808352835180602085015260005b818110156107d9578581018301518582016040015282016107bd565b506000604082860101526040601f19601f8301168501019250505092915050565b80356001600160a01b038116811461081157600080fd5b919050565b6000806040838503121561082957600080fd5b610832836107fa565b946020939093013593505050565b60008060006060848603121561085557600080fd5b61085e846107fa565b925061086c602085016107fa565b9150604084013590509250925092565b60006020828403121561088e57600080fd5b610897826107fa565b9392505050565b600080604083850312156108b157600080fd5b6108ba836107fa565b91506108c8602084016107fa565b90509250929050565b600181811c908216806108e557607f821691505b60208210810361090557634e487b7160e01b600052602260045260246000fd5b50919050565b808201808211156102e557634e487b7160e01b600052601160045260246000fdfea264697066735822122083aba8183714c11869fa024e48af24cf21bb8258d387416ef4ffeba21b28e70a64736f6c63430008180033",
  "linkReferences": {},
  "deployedLinkReferences": {}
}