{"contracts/Staking.sol":{"Staking":{"abi":[{"inputs":[{"internalType":"address","name":"_rewardToken","type":"address"},{"internalType":"address","name":"initialOwner","type":"address"}],"stateMutability":"nonpayable","type":"constructor"},{"inputs":[{"internalType":"address","name":"target","type":"address"}],"name":"AddressEmptyCode","type":"error"},{"inputs":[{"internalType":"address","name":"account","type":"address"}],"name":"AddressInsufficientBalance","type":"error"},{"inputs":[],"name":"FailedInnerCall","type":"error"},{"inputs":[{"internalType":"address","name":"owner","type":"address"}],"name":"OwnableInvalidOwner","type":"error"},{"inputs":[{"internalType":"address","name":"account","type":"address"}],"name":"OwnableUnauthorizedAccount","type":"error"},{"inputs":[],"name":"ReentrancyGuardReentrantCall","type":"error"},{"inputs":[{"internalType":"address","name":"token","type":"address"}],"name":"SafeERC20FailedOperation","type":"error"},{"anonymous":false,"inputs":[{"indexed":true,"internalType":"address","name":"previousOwner","type":"address"},{"indexed":true,"internalType":"address","name":"newOwner","type":"address"}],"name":"OwnershipTransferred","type":"event"},{"anonymous":false,"inputs":[{"indexed":true,"internalType":"uint256","name":"pid","type":"uint256"},{"indexed":false,"internalType":"address","name":"token","type":"address"},{"indexed":false,"internalType":"uint256","name":"aprBps","type":"uint256"}],"name":"PoolAdded","type":"event"},{"anonymous":false,"inputs":[{"indexed":true,"internalType":"address","name":"user","type":"address"},{"indexed":true,"internalType":"uint256","name":"pid","type":"uint256"},{"indexed":false,"internalType":"uint256","name":"reward","type":"uint256"}],"name":"RewardClaimed","type":"event"},{"anonymous":false,"inputs":[{"indexed":true,"internalType":"address","name":"user","type":"address"},{"indexed":true,"internalType":"uint256","name":"pid","type":"uint256"},{"indexed":false,"internalType":"uint256","name":"amount","type":"uint256"}],"name":"Staked","type":"event"},{"anonymous":false,"inputs":[{"indexed":true,"internalType":"address","name":"user","type":"address"},{"indexed":true,"internalType":"uint256","name":"pid","type":"uint256"},{"indexed":false,"internalType":"uint256","name":"amount","type":"uint256"}],"name":"Withdrawn","type":"event"},{"inputs":[{"internalType":"address","name":"_token","type":"address"},{"internalType":"uint256","name":"_aprBps","type":"uint256"}],"name":"addPool","outputs":[],"stateMutability":"nonpayable","type":"function"},{"inputs":[],"name":"claimAllRewards","outputs":[],"stateMutability":"nonpayable","type":"function"},{"inputs":[{"internalType":"uint256","name":"pid","type":"uint256"}],"name":"claimReward","outputs":[],"stateMutability":"nonpayable","type":"function"},{"inputs":[{"internalType":"uint256","name":"amount","type":"uint256"}],"name":"depositRewards","outputs":[],"stateMutability":"nonpayable","type":"function"},{"inputs":[],"name":"owner","outputs":[{"internalType":"address","name":"","type":"address"}],"stateMutability":"view","type":"function"},{"inputs":[{"internalType":"uint256","name":"pid","type":"uint256"},{"internalType":"address","name":"_user","type":"address"}],"name":"pendingReward","outputs":[{"internalType":"uint256","name":"","type":"uint256"}],"stateMutability":"view","type":"function"},{"inputs":[],"name":"poolLength","outputs":[{"internalType":"uint256","name":"","type":"uint256"}],"stateMutability":"view","type":"function"},{"inputs":[{"internalType":"uint256","name":"","type":"uint256"}],"name":"pools","outputs":[{"internalType":"contract IERC20","name":"token","type":"address"},{"internalType":"uint256","name":"aprBps","type":"uint256"},{"internalType":"uint256","name":"totalStaked","type":"uint256"},{"internalType":"bool","name":"active","type":"bool"}],"stateMutability":"view","type":"function"},{"inputs":[],"name":"renounceOwnership","outputs":[],"stateMutability":"nonpayable","type":"function"},{"inputs":[],"name":"rewardToken","outputs":[{"internalType":"contract IERC20","name":"","type":"address"}],"stateMutability":"view","type":"function"},{"inputs":[{"internalType":"uint256","name":"pid","type":"uint256"},{"internalType":"uint256","name":"_aprBps","type":"uint256"}],"name":"setPoolAPR","outputs":[],"stateMutability":"nonpayable","type":"function"},{"inputs":[{"internalType":"uint256","name":"pid","type":"uint256"},{"internalType":"uint256","name":"amount","type":"uint256"}],"name":"stake","outputs":[],"stateMutability":"nonpayable","type":"function"},{"inputs":[{"internalType":"address","name":"newOwner","type":"address"}],"name":"transferOwnership","outputs":[],"stateMutability":"nonpayable","type":"function"},{"inputs":[{"internalType":"uint256","name":"","type":"uint256"},{"internalType":"address","name":"","type":"address"}],"name":"userInfo","outputs":[{"internalType":"uint256","name":"amount","type":"uint256"},{"internalType":"uint256","name":"rewardDebt","type":"uint256"},{"internalType":"uint256","name":"lastUpdateTime","type":"uint256"}],"stateMutability":"view","type":"function"},{"inputs":[{"internalType":"uint256","name":"pid","type":"uint256"},{"internalType":"uint256","name":"amount","type":"uint256"}],"name":"withdraw","outputs":[],"stateMutability":"nonpayable","type":"function"}],"evm":{"bytecode":{"linkReferences":{},"object":"60a060405234801561001057600080fd5b5060405161117838038061117883398101604081905261002f916100ea565b806001600160a01b03811661005e57604051631e4fbdf760e01b81526000600482015260240160405180910390fd5b6100678161007e565b5050600180556001600160a01b031660805261011d565b600080546001600160a01b038381166001600160a01b0319831681178455604051919092169283917f8be0079c531659141344cd1fd0a4f28419497f9722a3daafe3b4186f6b6457e09190a35050565b80516001600160a01b03811681146100e557600080fd5b919050565b600080604083850312156100fd57600080fd5b610106836100ce565b9150610114602084016100ce565b90509250929050565b60805161102b61014d60003960008181610279015281816103aa015281816108ba0152610a9a015261102b6000f3fe608060405234801561001057600080fd5b50600436106100f55760003560e01c80638bdf67f211610097578063ac4afa3811610066578063ac4afa381461020f578063ae169a501461024e578063f2fde38b14610261578063f7c618c11461027457600080fd5b80638bdf67f21461016f5780638da5cb5b1461018257806393f1a40b146101a757806398969e82146101fc57600080fd5b806343fb9263116100d357806343fb92631461012e578063441a3e7014610141578063715018a6146101545780637b0472f01461015c57600080fd5b8063081e3eda146100fa5780630b83a7271461011157806332a9caba1461011b575b600080fd5b6002545b6040519081526020015b60405180910390f35b61011961029b565b005b610119610129366004610e3e565b6103dd565b61011961013c366004610e68565b610532565b61011961014f366004610e68565b610567565b6101196106c5565b61011961016a366004610e68565b6106d7565b61011961017d366004610e8a565b6108a5565b6000546001600160a01b03165b6040516001600160a01b039091168152602001610108565b6101e16101b5366004610ea3565b600360209081526000928352604080842090915290825290208054600182015460029092015490919083565b60408051938452602084019290925290820152606001610108565b6100fe61020a366004610ea3565b6108e5565b61022261021d366004610e8a565b6109a3565b604080516001600160a01b03909516855260208501939093529183015215156060820152608001610108565b61011961025c366004610e8a565b6109ea565b61011961026f366004610ecf565b610b03565b61018f7f000000000000000000000000000000000000000000000000000000000000000081565b6102a3610b3e565b6000805b600254811015610347576000818152600360209081526040808320338085529252822091906102d79084906108e5565b9050801561033d57600060018301554260028301556102f68185610f00565b935082336001600160a01b03167ff01da32686223933d8a18a391060918c7f11a3648639edd87ae013e2e27317438360405161033491815260200190565b60405180910390a35b50506001016102a7565b506000811161039d5760405162461bcd60e51b815260206004820152601c60248201527f5374616b696e673a204e6f207265776172647320746f20636c61696d0000000060448201526064015b60405180910390fd5b6103d16001600160a01b037f0000000000000000000000000000000000000000000000000000000000000000163383610b68565b506103db60018055565b565b6103e5610bcc565b604080516080810182526001600160a01b0384811682526020820184815260009383018481526001606085018181526002805480840182559781905295517f405787fa12a823e0f2b7631cc41b3ba8828b3321ca811111fa75cd3aa3bb5ace600490980297880180546001600160a01b031916919096161790945591517f405787fa12a823e0f2b7631cc41b3ba8828b3321ca811111fa75cd3aa3bb5acf860155517f405787fa12a823e0f2b7631cc41b3ba8828b3321ca811111fa75cd3aa3bb5ad085015590517f405787fa12a823e0f2b7631cc41b3ba8828b3321ca811111fa75cd3aa3bb5ad1909301805460ff191693151593909317909255546104ec9190610f13565b604080516001600160a01b0385168152602081018490527f6c5d0ef1d0199b6de41ecbce95f59643be4d723ca363faf92d756e61e82fb13e910160405180910390a25050565b61053a610bcc565b806002838154811061054e5761054e610f26565b9060005260206000209060040201600101819055505050565b61056f610b3e565b60025482106105905760405162461bcd60e51b815260040161039490610f3c565b6000828152600360209081526040808320338452909152902080548211156105fa5760405162461bcd60e51b815260206004820152601c60248201527f5374616b696e673a20496e73756666696369656e74207374616b6564000000006044820152606401610394565b60006002848154811061060f5761060f610f26565b9060005260206000209060040201905061062984336108e5565b6001830155426002830155815483908390600090610648908490610f13565b92505081905550828160020160008282546106639190610f13565b9091555050805461067e906001600160a01b03163385610b68565b604051838152849033907f92ccf450a286a957af52509bc1c9939d1a6a481783e142e41e2499f0bb66ebc6906020015b60405180910390a350506106c160018055565b5050565b6106cd610bcc565b6103db6000610bf9565b6106df610b3e565b60025482106107005760405162461bcd60e51b815260040161039490610f3c565b6002828154811061071357610713610f26565b600091825260209091206003600490920201015460ff166107765760405162461bcd60e51b815260206004820152601860248201527f5374616b696e673a20506f6f6c206e6f742061637469766500000000000000006044820152606401610394565b600081116107c65760405162461bcd60e51b815260206004820152601b60248201527f5374616b696e673a20416d6f756e74206d757374206265203e203000000000006044820152606401610394565b6000600283815481106107db576107db610f26565b6000918252602080832086845260038252604080852033865290925292208054600490920290920192501561081d57600061081685336108e5565b6001830155505b8154610834906001600160a01b0316333086610c49565b828160000160008282546108489190610f00565b925050819055504281600201819055508282600201600082825461086c9190610f00565b9091555050604051838152849033907f1449c6dd7851abc30abf37f57715f492010519147cc2652fbc38202c18a6ee90906020016106ae565b6108ad610bcc565b6108e26001600160a01b037f000000000000000000000000000000000000000000000000000000000000000016333084610c49565b50565b60008281526003602090815260408083206001600160a01b038516845290915281208054820361091a5760010154905061099d565b60006002858154811061092f5761092f610f26565b9060005260206000209060040201905060008260020154426109519190610f13565b9050600064496cebb80082846001015486600001546109709190610f6b565b61097a9190610f6b565b6109849190610f82565b90508084600101546109969190610f00565b9450505050505b92915050565b600281815481106109b357600080fd5b600091825260209091206004909102018054600182015460028301546003909301546001600160a01b039092169350919060ff1684565b6109f2610b3e565b6002548110610a135760405162461bcd60e51b815260040161039490610f3c565b600081815260036020908152604080832033808552925282209190610a399084906108e5565b905060008111610a805760405162461bcd60e51b815260206004820152601260248201527114dd185ada5b99ce88139bc81c995dd85c9960721b6044820152606401610394565b60006001830155426002830155610ac16001600160a01b037f0000000000000000000000000000000000000000000000000000000000000000163383610b68565b604051818152839033907ff01da32686223933d8a18a391060918c7f11a3648639edd87ae013e2e27317439060200160405180910390a350506108e260018055565b610b0b610bcc565b6001600160a01b038116610b3557604051631e4fbdf760e01b815260006004820152602401610394565b6108e281610bf9565b600260015403610b6157604051633ee5aeb560e01b815260040160405180910390fd5b6002600155565b6040516001600160a01b03838116602483015260448201839052610bc791859182169063a9059cbb906064015b604051602081830303815290604052915060e01b6020820180516001600160e01b038381831617835250505050610c88565b505050565b6000546001600160a01b031633146103db5760405163118cdaa760e01b8152336004820152602401610394565b600080546001600160a01b038381166001600160a01b0319831681178455604051919092169283917f8be0079c531659141344cd1fd0a4f28419497f9722a3daafe3b4186f6b6457e09190a35050565b6040516001600160a01b038481166024830152838116604483015260648201839052610c829186918216906323b872dd90608401610b95565b50505050565b6000610c9d6001600160a01b03841683610ceb565b90508051600014158015610cc2575080806020019051810190610cc09190610fa4565b155b15610bc757604051635274afe760e01b81526001600160a01b0384166004820152602401610394565b6060610cf983836000610d00565b9392505050565b606081471015610d255760405163cd78605960e01b8152306004820152602401610394565b600080856001600160a01b03168486604051610d419190610fc6565b60006040518083038185875af1925050503d8060008114610d7e576040519150601f19603f3d011682016040523d82523d6000602084013e610d83565b606091505b5091509150610d93868383610d9d565b9695505050505050565b606082610db257610dad82610df9565b610cf9565b8151158015610dc957506001600160a01b0384163b155b15610df257604051639996b31560e01b81526001600160a01b0385166004820152602401610394565b5080610cf9565b805115610e095780518082602001fd5b604051630a12f52160e11b815260040160405180910390fd5b80356001600160a01b0381168114610e3957600080fd5b919050565b60008060408385031215610e5157600080fd5b610e5a83610e22565b946020939093013593505050565b60008060408385031215610e7b57600080fd5b50508035926020909101359150565b600060208284031215610e9c57600080fd5b5035919050565b60008060408385031215610eb657600080fd5b82359150610ec660208401610e22565b90509250929050565b600060208284031215610ee157600080fd5b610cf982610e22565b634e487b7160e01b600052601160045260246000fd5b8082018082111561099d5761099d610eea565b8181038181111561099d5761099d610eea565b634e487b7160e01b600052603260045260246000fd5b60208082526015908201527414dd185ada5b99ce88125b9d985b1a59081c1bdbdb605a1b604082015260600190565b808202811582820484141761099d5761099d610eea565b600082610f9f57634e487b7160e01b600052601260045260246000fd5b500490565b600060208284031215610fb657600080fd5b81518015158114610cf957600080fd5b6000825160005b81811015610fe75760208186018101518583015201610fcd565b50600092019182525091905056fea26469706673582212201e4e2b24bfd4b8fd1f1a084be4ead19293d15b7f2f195ae3e51e0e559d8799bd64736f6c63430008180033","opcodes":"PUSH1 0xA0 PUSH1 0x40 MSTORE CALLVALUE DUP1 ISZERO PUSH2 0x10 JUMPI PUSH1 0x0 DUP1 REVERT JUMPDEST POP PUSH1 0x40 MLOAD PUSH2 0x1178 CODESIZE SUB DUP1 PUSH2 0x1178 DUP4 CODECOPY DUP2 ADD PUSH1 0x40 DUP2 SWAP1 MSTORE PUSH2 0x2F SWAP2 PUSH2 0xEA JUMP JUMPDEST DUP1 PUSH1 0x1 PUSH1 0x1 PUSH1 0xA0 SHL SUB DUP2 AND PUSH2 0x5E JUMPI PUSH1 0x40 MLOAD PUSH4 0x1E4FBDF7 PUSH1 0xE0 SHL DUP2 MSTORE PUSH1 0x0 PUSH1 0x4 DUP3 ADD MSTORE PUSH1 0x24 ADD PUSH1 0x40 MLOAD DUP1 SWAP2 SUB SWAP1 REVERT JUMPDEST PUSH2 0x67 DUP2 PUSH2 0x7E JUMP JUMPDEST POP POP PUSH1 0x1 DUP1 SSTORE PUSH1 0x1 PUSH1 0x1 PUSH1 0xA0 SHL SUB AND PUSH1 0x80 MSTORE PUSH2 0x11D JUMP JUMPDEST PUSH1 0x0 DUP1 SLOAD PUSH1 0x1 PUSH1 0x1 PUSH1 0xA0 SHL SUB DUP4 DUP2 AND PUSH1 0x1 PUSH1 0x1 PUSH1 0xA0 SHL SUB NOT DUP4 AND DUP2 OR DUP5 SSTORE PUSH1 0x40 MLOAD SWAP2 SWAP1 SWAP3 AND SWAP3 DUP4 SWAP2 PUSH32 0x8BE0079C531659141344CD1FD0A4F28419497F9722A3DAAFE3B4186F6B6457E0 SWAP2 SWAP1 LOG3 POP POP JUMP JUMPDEST DUP1 MLOAD PUSH1 0x1 PUSH1 0x1 PUSH1 0xA0 SHL SUB DUP2 AND DUP2 EQ PUSH2 0xE5 JUMPI PUSH1 0x0 DUP1 REVERT JUMPDEST SWAP2 SWAP1 POP JUMP JUMPDEST PUSH1 0x0 DUP1 PUSH1 0x40 DUP4 DUP6 SUB SLT ISZERO PUSH2 0xFD JUMPI PUSH1 0x0 DUP1 REVERT JUMPDEST PUSH2 0x106 DUP4 PUSH2 0xCE JUMP JUMPDEST SWAP2 POP PUSH2 0x114 PUSH1 0x20 DUP5 ADD PUSH2 0xCE JUMP JUMPDEST SWAP1 POP SWAP3 POP SWAP3 SWAP1 POP JUMP JUMPDEST PUSH1 0x80 MLOAD PUSH2 0x102B PUSH2 0x14D PUSH1 0x0 CODECOPY PUSH1 0x0 DUP2 DUP2 PUSH2 0x279 ADD MSTORE DUP2 DUP2 PUSH2 0x3AA ADD MSTORE DUP2 DUP2 PUSH2 0x8BA ADD MSTORE PUSH2 0xA9A ADD MSTORE PUSH2 0x102B PUSH1 0x0 RETURN INVALID PUSH1 0x80 PUSH1 0x40 MSTORE CALLVALUE DUP1 ISZERO PUSH2 0x10 JUMPI PUSH1 0x0 DUP1 REVERT JUMPDEST POP PUSH1 0x4 CALLDATASIZE LT PUSH2 0xF5 JUMPI PUSH1 0x0 CALLDATALOAD PUSH1 0xE0 SHR DUP1 PUSH4 0x8BDF67F2 GT PUSH2 0x97 JUMPI DUP1 PUSH4 0xAC4AFA38 GT PUSH2 0x66 JUMPI DUP1 PUSH4 0xAC4AFA38 EQ PUSH2 0x20F JUMPI DUP1 PUSH4 0xAE169A50 EQ PUSH2 0x24E JUMPI DUP1 PUSH4 0xF2FDE38B EQ PUSH2 0x261 JUMPI DUP1 PUSH4 0xF7C618C1 EQ PUSH2 0x274 JUMPI PUSH1 0x0 DUP1 REVERT JUMPDEST DUP1 PUSH4 0x8BDF67F2 EQ PUSH2 0x16F JUMPI DUP1 PUSH4 0x8DA5CB5B EQ PUSH2 0x182 JUMPI DUP1 PUSH4 0x93F1A40B EQ PUSH2 0x1A7 JUMPI DUP1 PUSH4 0x98969E82 EQ PUSH2 0x1FC JUMPI PUSH1 0x0 DUP1 REVERT JUMPDEST DUP1 PUSH4 0x43FB9263 GT PUSH2 0xD3 JUMPI DUP1 PUSH4 0x43FB9263 EQ PUSH2 0x12E JUMPI DUP1 PUSH4 0x441A3E70 EQ PUSH2 0x141 JUMPI DUP1 PUSH4 0x715018A6 EQ PUSH2 0x154 JUMPI DUP1 PUSH4 0x7B0472F0 EQ PUSH2 0x15C JUMPI PUSH1 0x0 DUP1 REVERT JUMPDEST DUP1 PUSH4 0x81E3EDA EQ PUSH2 0xFA JUMPI DUP1 PUSH4 0xB83A727 EQ PUSH2 0x111 JUMPI DUP1 PUSH4 0x32A9CABA EQ PUSH2 0x11B JUMPI JUMPDEST PUSH1 0x0 DUP1 REVERT JUMPDEST PUSH1 0x2 SLOAD JUMPDEST PUSH1 0x40 MLOAD SWAP1 DUP2 MSTORE PUSH1 0x20 ADD JUMPDEST PUSH1 0x40 MLOAD DUP1 SWAP2 SUB SWAP1 RETURN JUMPDEST PUSH2 0x119 PUSH2 0x29B JUMP JUMPDEST STOP JUMPDEST PUSH2 0x119 PUSH2 0x129 CALLDATASIZE PUSH1 0x4 PUSH2 0xE3E JUMP JUMPDEST PUSH2 0x3DD JUMP JUMPDEST PUSH2 0x119 PUSH2 0x13C CALLDATASIZE PUSH1 0x4 PUSH2 0xE68 JUMP JUMPDEST PUSH2 0x532 JUMP JUMPDEST PUSH2 0x119 PUSH2 0x14F CALLDATASIZE PUSH1 0x4 PUSH2 0xE68 JUMP JUMPDEST PUSH2 0x567 JUMP JUMPDEST PUSH2 0x119 PUSH2 0x6C5 JUMP JUMPDEST PUSH2 0x119 PUSH2 0x16A CALLDATASIZE PUSH1 0x4 PUSH2 0xE68 JUMP JUMPDEST PUSH2 0x6D7 JUMP JUMPDEST PUSH2 0x119 PUSH2 0x17D CALLDATASIZE PUSH1 0x4 PUSH2 0xE8A JUMP JUMPDEST PUSH2 0x8A5 JUMP JUMPDEST PUSH1 0x0 SLOAD PUSH1 0x1 PUSH1 0x1 PUSH1 0xA0 SHL SUB AND JUMPDEST PUSH1 0x40 MLOAD PUSH1 0x1 PUSH1 0x1 PUSH1 0xA0 SHL SUB SWAP1 SWAP2 AND DUP2 MSTORE PUSH1 0x20 ADD PUSH2 0x108 JUMP JUMPDEST PUSH2 0x1E1 PUSH2 0x1B5 CALLDATASIZE PUSH1 0x4 PUSH2 0xEA3 JUMP JUMPDEST PUSH1 0x3 PUSH1 0x20 SWAP1 DUP2 MSTORE PUSH1 0x0 SWAP3 DUP4 MSTORE PUSH1 0x40 DUP1 DUP5 KECCAK256 SWAP1 SWAP2 MSTORE SWAP1 DUP3 MSTORE SWAP1 KECCAK256 DUP1 SLOAD PUSH1 0x1 DUP3 ADD SLOAD PUSH1 0x2 SWAP1 SWAP3 ADD SLOAD SWAP1 SWAP2 SWAP1 DUP4 JUMP JUMPDEST PUSH1 0x40 DUP1 MLOAD SWAP4 DUP5 MSTORE PUSH1 0x20 DUP5 ADD SWAP3 SWAP1 SWAP3 MSTORE SWAP1 DUP3 ADD MSTORE PUSH1 0x60 ADD PUSH2 0x108 JUMP JUMPDEST PUSH2 0xFE PUSH2 0x20A CALLDATASIZE PUSH1 0x4 PUSH2 0xEA3 JUMP JUMPDEST PUSH2 0x8E5 JUMP JUMPDEST PUSH2 0x222 PUSH2 0x21D CALLDATASIZE PUSH1 0x4 PUSH2 0xE8A JUMP JUMPDEST PUSH2 0x9A3 JUMP JUMPDEST PUSH1 0x40 DUP1 MLOAD PUSH1 0x1 PUSH1 0x1 PUSH1 0xA0 SHL SUB SWAP1 SWAP6 AND DUP6 MSTORE PUSH1 0x20 DUP6 ADD SWAP4 SWAP1 SWAP4 MSTORE SWAP2 DUP4 ADD MSTORE ISZERO ISZERO PUSH1 0x60 DUP3 ADD MSTORE PUSH1 0x80 ADD PUSH2 0x108 JUMP JUMPDEST PUSH2 0x119 PUSH2 0x25C CALLDATASIZE PUSH1 0x4 PUSH2 0xE8A JUMP JUMPDEST PUSH2 0x9EA JUMP JUMPDEST PUSH2 0x119 PUSH2 0x26F CALLDATASIZE PUSH1 0x4 PUSH2 0xECF JUMP JUMPDEST PUSH2 0xB03 JUMP JUMPDEST PUSH2 0x18F PUSH32 0x0 DUP2 JUMP JUMPDEST PUSH2 0x2A3 PUSH2 0xB3E JUMP JUMPDEST PUSH1 0x0 DUP1 JUMPDEST PUSH1 0x2 SLOAD DUP2 LT ISZERO PUSH2 0x347 JUMPI PUSH1 0x0 DUP2 DUP2 MSTORE PUSH1 0x3 PUSH1 0x20 SWAP1 DUP2 MSTORE PUSH1 0x40 DUP1 DUP4 KECCAK256 CALLER DUP1 DUP6 MSTORE SWAP3 MSTORE DUP3 KECCAK256 SWAP2 SWAP1 PUSH2 0x2D7 SWAP1 DUP5 SWAP1 PUSH2 0x8E5 JUMP JUMPDEST SWAP1 POP DUP1 ISZERO PUSH2 0x33D JUMPI PUSH1 0x0 PUSH1 0x1 DUP4 ADD SSTORE TIMESTAMP PUSH1 0x2 DUP4 ADD SSTORE PUSH2 0x2F6 DUP2 DUP6 PUSH2 0xF00 JUMP JUMPDEST SWAP4 POP DUP3 CALLER PUSH1 0x1 PUSH1 0x1 PUSH1 0xA0 SHL SUB AND PUSH32 0xF01DA32686223933D8A18A391060918C7F11A3648639EDD87AE013E2E2731743 DUP4 PUSH1 0x40 MLOAD PUSH2 0x334 SWAP2 DUP2 MSTORE PUSH1 0x20 ADD SWAP1 JUMP JUMPDEST PUSH1 0x40 MLOAD DUP1 SWAP2 SUB SWAP1 LOG3 JUMPDEST POP POP PUSH1 0x1 ADD PUSH2 0x2A7 JUMP JUMPDEST POP PUSH1 0x0 DUP2 GT PUSH2 0x39D JUMPI PUSH1 0x40 MLOAD PUSH3 0x461BCD PUSH1 0xE5 SHL DUP2 MSTORE PUSH1 0x20 PUSH1 0x4 DUP3 ADD MSTORE PUSH1 0x1C PUSH1 0x24 DUP3 ADD MSTORE PUSH32 0x5374616B696E673A204E6F207265776172647320746F20636C61696D00000000 PUSH1 0x44 DUP3 ADD MSTORE PUSH1 0x64 ADD JUMPDEST PUSH1 0x40 MLOAD DUP1 SWAP2 SUB SWAP1 REVERT JUMPDEST PUSH2 0x3D1 PUSH1 0x1 PUSH1 0x1 PUSH1 0xA0 SHL SUB PUSH32 0x0 AND CALLER DUP4 PUSH2 0xB68 JUMP JUMPDEST POP PUSH2 0x3DB PUSH1 0x1 DUP1 SSTORE JUMP JUMPDEST JUMP JUMPDEST PUSH2 0x3E5 PUSH2 0xBCC JUMP JUMPDEST PUSH1 0x40 DUP1 MLOAD PUSH1 0x80 DUP2 ADD DUP3 MSTORE PUSH1 0x1 PUSH1 0x1 PUSH1 0xA0 SHL SUB DUP5 DUP2 AND DUP3 MSTORE PUSH1 0x20 DUP3 ADD DUP5 DUP2 MSTORE PUSH1 0x0 SWAP4 DUP4 ADD DUP5 DUP2 MSTORE PUSH1 0x1 PUSH1 0x60 DUP6 ADD DUP2 DUP2 MSTORE PUSH1 0x2 DUP1 SLOAD DUP1 DUP5 ADD DUP3 SSTORE SWAP8 DUP2 SWAP1 MSTORE SWAP6 MLOAD PUSH32 0x405787FA12A823E0F2B7631CC41B3BA8828B3321CA811111FA75CD3AA3BB5ACE PUSH1 0x4 SWAP1 SWAP9 MUL SWAP8 DUP9 ADD DUP1 SLOAD PUSH1 0x1 PUSH1 0x1 PUSH1 0xA0 SHL SUB NOT AND SWAP2 SWAP1 SWAP7 AND OR SWAP1 SWAP5 SSTORE SWAP2 MLOAD PUSH32 0x405787FA12A823E0F2B7631CC41B3BA8828B3321CA811111FA75CD3AA3BB5ACF DUP7 ADD SSTORE MLOAD PUSH32 0x405787FA12A823E0F2B7631CC41B3BA8828B3321CA811111FA75CD3AA3BB5AD0 DUP6 ADD SSTORE SWAP1 MLOAD PUSH32 0x405787FA12A823E0F2B7631CC41B3BA8828B3321CA811111FA75CD3AA3BB5AD1 SWAP1 SWAP4 ADD DUP1 SLOAD PUSH1 0xFF NOT AND SWAP4 ISZERO ISZERO SWAP4 SWAP1 SWAP4 OR SWAP1 SWAP3 SSTORE SLOAD PUSH2 0x4EC SWAP2 SWAP1 PUSH2 0xF13 JUMP JUMPDEST PUSH1 0x40 DUP1 MLOAD PUSH1 0x1 PUSH1 0x1 PUSH1 0xA0 SHL SUB DUP6 AND DUP2 MSTORE PUSH1 0x20 DUP2 ADD DUP5 SWAP1 MSTORE PUSH32 0x6C5D0EF1D0199B6DE41ECBCE95F59643BE4D723CA363FAF92D756E61E82FB13E SWAP2 ADD PUSH1 0x40 MLOAD DUP1 SWAP2 SUB SWAP1 LOG2 POP POP JUMP JUMPDEST PUSH2 0x53A PUSH2 0xBCC JUMP JUMPDEST DUP1 PUSH1 0x2 DUP4 DUP2 SLOAD DUP2 LT PUSH2 0x54E JUMPI PUSH2 0x54E PUSH2 0xF26 JUMP JUMPDEST SWAP1 PUSH1 0x0 MSTORE PUSH1 0x20 PUSH1 0x0 KECCAK256 SWAP1 PUSH1 0x4 MUL ADD PUSH1 0x1 ADD DUP2 SWAP1 SSTORE POP POP POP JUMP JUMPDEST PUSH2 0x56F PUSH2 0xB3E JUMP JUMPDEST PUSH1 0x2 SLOAD DUP3 LT PUSH2 0x590 JUMPI PUSH1 0x40 MLOAD PUSH3 0x461BCD PUSH1 0xE5 SHL DUP2 MSTORE PUSH1 0x4 ADD PUSH2 0x394 SWAP1 PUSH2 0xF3C JUMP JUMPDEST PUSH1 0x0 DUP3 DUP2 MSTORE PUSH1 0x3 PUSH1 0x20 SWAP1 DUP2 MSTORE PUSH1 0x40 DUP1 DUP4 KECCAK256 CALLER DUP5 MSTORE SWAP1 SWAP2 MSTORE SWAP1 KECCAK256 DUP1 SLOAD DUP3 GT ISZERO PUSH2 0x5FA JUMPI PUSH1 0x40 MLOAD PUSH3 0x461BCD PUSH1 0xE5 SHL DUP2 MSTORE PUSH1 0x20 PUSH1 0x4 DUP3 ADD MSTORE PUSH1 0x1C PUSH1 0x24 DUP3 ADD MSTORE PUSH32 0x5374616B696E673A20496E73756666696369656E74207374616B656400000000 PUSH1 0x44 DUP3 ADD MSTORE PUSH1 0x64 ADD PUSH2 0x394 JUMP JUMPDEST PUSH1 0x0 PUSH1 0x2 DUP5 DUP2 SLOAD DUP2 LT PUSH2 0x60F JUMPI PUSH2 0x60F PUSH2 0xF26 JUMP JUMPDEST SWAP1 PUSH1 0x0 MSTORE PUSH1 0x20 PUSH1 0x0 KECCAK256 SWAP1 PUSH1 0x4 MUL ADD SWAP1 POP PUSH2 0x629 DUP5 CALLER PUSH2 0x8E5 JUMP JUMPDEST PUSH1 0x1 DUP4 ADD SSTORE TIMESTAMP PUSH1 0x2 DUP4 ADD SSTORE DUP2 SLOAD DUP4 SWAP1 DUP4 SWAP1 PUSH1 0x0 SWAP1 PUSH2 0x648 SWAP1 DUP5 SWAP1 PUSH2 0xF13 JUMP JUMPDEST SWAP3 POP POP DUP2 SWAP1 SSTORE POP DUP3 DUP2 PUSH1 0x2 ADD PUSH1 0x0 DUP3 DUP3 SLOAD PUSH2 0x663 SWAP2 SWAP1 PUSH2 0xF13 JUMP JUMPDEST SWAP1 SWAP2 SSTORE POP POP DUP1 SLOAD PUSH2 0x67E SWAP1 PUSH1 0x1 PUSH1 0x1 PUSH1 0xA0 SHL SUB AND CALLER DUP6 PUSH2 0xB68 JUMP JUMPDEST PUSH1 0x40 MLOAD DUP4 DUP2 MSTORE DUP5 SWAP1 CALLER SWAP1 PUSH32 0x92CCF450A286A957AF52509BC1C9939D1A6A481783E142E41E2499F0BB66EBC6 SWAP1 PUSH1 0x20 ADD JUMPDEST PUSH1 0x40 MLOAD DUP1 SWAP2 SUB SWAP1 LOG3 POP POP PUSH2 0x6C1 PUSH1 0x1 DUP1 SSTORE JUMP JUMPDEST POP POP JUMP JUMPDEST PUSH2 0x6CD PUSH2 0xBCC JUMP JUMPDEST PUSH2 0x3DB PUSH1 0x0 PUSH2 0xBF9 JUMP JUMPDEST PUSH2 0x6DF PUSH2 0xB3E JUMP JUMPDEST PUSH1 0x2 SLOAD DUP3 LT PUSH2 0x700 JUMPI PUSH1 0x40 MLOAD PUSH3 0x461BCD PUSH1 0xE5 SHL DUP2 MSTORE PUSH1 0x4 ADD PUSH2 0x394 SWAP1 PUSH2 0xF3C JUMP JUMPDEST PUSH1 0x2 DUP3 DUP2 SLOAD DUP2 LT PUSH2 0x713 JUMPI PUSH2 0x713 PUSH2 0xF26 JUMP JUMPDEST PUSH1 0x0 SWAP2 DUP3 MSTORE PUSH1 0x20 SWAP1 SWAP2 KECCAK256 PUSH1 0x3 PUSH1 0x4 SWAP1 SWAP3 MUL ADD ADD SLOAD PUSH1 0xFF AND PUSH2 0x776 JUMPI PUSH1 0x40 MLOAD PUSH3 0x461BCD PUSH1 0xE5 SHL DUP2 MSTORE PUSH1 0x20 PUSH1 0x4 DUP3 ADD MSTORE PUSH1 0x18 PUSH1 0x24 DUP3 ADD MSTORE PUSH32 0x5374616B696E673A20506F6F6C206E6F74206163746976650000000000000000 PUSH1 0x44 DUP3 ADD MSTORE PUSH1 0x64 ADD PUSH2 0x394 JUMP JUMPDEST PUSH1 0x0 DUP2 GT PUSH2 0x7C6 JUMPI PUSH1 0x40 MLOAD PUSH3 0x461BCD PUSH1 0xE5 SHL DUP2 MSTORE PUSH1 0x20 PUSH1 0x4 DUP3 ADD MSTORE PUSH1 0x1B PUSH1 0x24 DUP3 ADD MSTORE PUSH32 0x5374616B696E673A20416D6F756E74206D757374206265203E20300000000000 PUSH1 0x44 DUP3 ADD MSTORE PUSH1 0x64 ADD PUSH2 0x394 JUMP JUMPDEST PUSH1 0x0 PUSH1 0x2 DUP4 DUP2 SLOAD DUP2 LT PUSH2 0x7DB JUMPI PUSH2 0x7DB PUSH2 0xF26 JUMP JUMPDEST PUSH1 0x0 SWAP2 DUP3 MSTORE PUSH1 0x20 DUP1 DUP4 KECCAK256 DUP7 DUP5 MSTORE PUSH1 0x3 DUP3 MSTORE PUSH1 0x40 DUP1 DUP6 KECCAK256 CALLER DUP7 MSTORE SWAP1 SWAP3 MSTORE SWAP3 KECCAK256 DUP1 SLOAD PUSH1 0x4 SWAP1 SWAP3 MUL SWAP1 SWAP3 ADD SWAP3 POP ISZERO PUSH2 0x81D JUMPI PUSH1 0x0 PUSH2 0x816 DUP6 CALLER PUSH2 0x8E5 JUMP JUMPDEST PUSH1 0x1 DUP4 ADD SSTORE POP JUMPDEST DUP2 SLOAD PUSH2 0x834 SWAP1 PUSH1 0x1 PUSH1 0x1 PUSH1 0xA0 SHL SUB AND CALLER ADDRESS DUP7 PUSH2 0xC49 JUMP JUMPDEST DUP3 DUP2 PUSH1 0x0 ADD PUSH1 0x0 DUP3 DUP3 SLOAD PUSH2 0x848 SWAP2 SWAP1 PUSH2 0xF00 JUMP JUMPDEST SWAP3 POP POP DUP2 SWAP1 SSTORE POP TIMESTAMP DUP2 PUSH1 0x2 ADD DUP2 SWAP1 SSTORE POP DUP3 DUP3 PUSH1 0x2 ADD PUSH1 0x0 DUP3 DUP3 SLOAD PUSH2 0x86C SWAP2 SWAP1 PUSH2 0xF00 JUMP JUMPDEST SWAP1 SWAP2 SSTORE POP POP PUSH1 0x40 MLOAD DUP4 DUP2 MSTORE DUP5 SWAP1 CALLER SWAP1 PUSH32 0x1449C6DD7851ABC30ABF37F57715F492010519147CC2652FBC38202C18A6EE90 SWAP1 PUSH1 0x20 ADD PUSH2 0x6AE JUMP JUMPDEST PUSH2 0x8AD PUSH2 0xBCC JUMP JUMPDEST PUSH2 0x8E2 PUSH1 0x1 PUSH1 0x1 PUSH1 0xA0 SHL SUB PUSH32 0x0 AND CALLER ADDRESS DUP5 PUSH2 0xC49 JUMP JUMPDEST POP JUMP JUMPDEST PUSH1 0x0 DUP3 DUP2 MSTORE PUSH1 0x3 PUSH1 0x20 SWAP1 DUP2 MSTORE PUSH1 0x40 DUP1 DUP4 KECCAK256 PUSH1 0x1 PUSH1 0x1 PUSH1 0xA0 SHL SUB DUP6 AND DUP5 MSTORE SWAP1 SWAP2 MSTORE DUP2 KECCAK256 DUP1 SLOAD DUP3 SUB PUSH2 0x91A JUMPI PUSH1 0x1 ADD SLOAD SWAP1 POP PUSH2 0x99D JUMP JUMPDEST PUSH1 0x0 PUSH1 0x2 DUP6 DUP2 SLOAD DUP2 LT PUSH2 0x92F JUMPI PUSH2 0x92F PUSH2 0xF26 JUMP JUMPDEST SWAP1 PUSH1 0x0 MSTORE PUSH1 0x20 PUSH1 0x0 KECCAK256 SWAP1 PUSH1 0x4 MUL ADD SWAP1 POP PUSH1 0x0 DUP3 PUSH1 0x2 ADD SLOAD TIMESTAMP PUSH2 0x951 SWAP2 SWAP1 PUSH2 0xF13 JUMP JUMPDEST SWAP1 POP PUSH1 0x0 PUSH5 0x496CEBB800 DUP3 DUP5 PUSH1 0x1 ADD SLOAD DUP7 PUSH1 0x0 ADD SLOAD PUSH2 0x970 SWAP2 SWAP1 PUSH2 0xF6B JUMP JUMPDEST PUSH2 0x97A SWAP2 SWAP1 PUSH2 0xF6B JUMP JUMPDEST PUSH2 0x984 SWAP2 SWAP1 PUSH2 0xF82 JUMP JUMPDEST SWAP1 POP DUP1 DUP5 PUSH1 0x1 ADD SLOAD PUSH2 0x996 SWAP2 SWAP1 PUSH2 0xF00 JUMP JUMPDEST SWAP5 POP POP POP POP POP JUMPDEST SWAP3 SWAP2 POP POP JUMP JUMPDEST PUSH1 0x2 DUP2 DUP2 SLOAD DUP2 LT PUSH2 0x9B3 JUMPI PUSH1 0x0 DUP1 REVERT JUMPDEST PUSH1 0x0 SWAP2 DUP3 MSTORE PUSH1 0x20 SWAP1 SWAP2 KECCAK256 PUSH1 0x4 SWAP1 SWAP2 MUL ADD DUP1 SLOAD PUSH1 0x1 DUP3 ADD SLOAD PUSH1 0x2 DUP4 ADD SLOAD PUSH1 0x3 SWAP1 SWAP4 ADD SLOAD PUSH1 0x1 PUSH1 0x1 PUSH1 0xA0 SHL SUB SWAP1 SWAP3 AND SWAP4 POP SWAP2 SWAP1 PUSH1 0xFF AND DUP5 JUMP JUMPDEST PUSH2 0x9F2 PUSH2 0xB3E JUMP JUMPDEST PUSH1 0x2 SLOAD DUP2 LT PUSH2 0xA13 JUMPI PUSH1 0x40 MLOAD PUSH3 0x461BCD PUSH1 0xE5 SHL DUP2 MSTORE PUSH1 0x4 ADD PUSH2 0x394 SWAP1 PUSH2 0xF3C JUMP JUMPDEST PUSH1 0x0 DUP2 DUP2 MSTORE PUSH1 0x3 PUSH1 0x20 SWAP1 DUP2 MSTORE PUSH1 0x40 DUP1 DUP4 KECCAK256 CALLER DUP1 DUP6 MSTORE SWAP3 MSTORE DUP3 KECCAK256 SWAP2 SWAP1 PUSH2 0xA39 SWAP1 DUP5 SWAP1 PUSH2 0x8E5 JUMP JUMPDEST SWAP1 POP PUSH1 0x0 DUP2 GT PUSH2 0xA80 JUMPI PUSH1 0x40 MLOAD PUSH3 0x461BCD PUSH1 0xE5 SHL DUP2 MSTORE PUSH1 0x20 PUSH1 0x4 DUP3 ADD MSTORE PUSH1 0x12 PUSH1 0x24 DUP3 ADD MSTORE PUSH18 0x14DD185ADA5B99CE88139BC81C995DD85C99 PUSH1 0x72 SHL PUSH1 0x44 DUP3 ADD MSTORE PUSH1 0x64 ADD PUSH2 0x394 JUMP JUMPDEST PUSH1 0x0 PUSH1 0x1 DUP4 ADD SSTORE TIMESTAMP PUSH1 0x2 DUP4 ADD SSTORE PUSH2 0xAC1 PUSH1 0x1 PUSH1 0x1 PUSH1 0xA0 SHL SUB PUSH32 0x0 AND CALLER DUP4 PUSH2 0xB68 JUMP JUMPDEST PUSH1 0x40 MLOAD DUP2 DUP2 MSTORE DUP4 SWAP1 CALLER SWAP1 PUSH32 0xF01DA32686223933D8A18A391060918C7F11A3648639EDD87AE013E2E2731743 SWAP1 PUSH1 0x20 ADD PUSH1 0x40 MLOAD DUP1 SWAP2 SUB SWAP1 LOG3 POP POP PUSH2 0x8E2 PUSH1 0x1 DUP1 SSTORE JUMP JUMPDEST PUSH2 0xB0B PUSH2 0xBCC JUMP JUMPDEST PUSH1 0x1 PUSH1 0x1 PUSH1 0xA0 SHL SUB DUP2 AND PUSH2 0xB35 JUMPI PUSH1 0x40 MLOAD PUSH4 0x1E4FBDF7 PUSH1 0xE0 SHL DUP2 MSTORE PUSH1 0x0 PUSH1 0x4 DUP3 ADD MSTORE PUSH1 0x24 ADD PUSH2 0x394 JUMP JUMPDEST PUSH2 0x8E2 DUP2 PUSH2 0xBF9 JUMP JUMPDEST PUSH1 0x2 PUSH1 0x1 SLOAD SUB PUSH2 0xB61 JUMPI PUSH1 0x40 MLOAD PUSH4 0x3EE5AEB5 PUSH1 0xE0 SHL DUP2 MSTORE PUSH1 0x4 ADD PUSH1 0x40 MLOAD DUP1 SWAP2 SUB SWAP1 REVERT JUMPDEST PUSH1 0x2 PUSH1 0x1 SSTORE JUMP JUMPDEST PUSH1 0x40 MLOAD PUSH1 0x1 PUSH1 0x1 PUSH1 0xA0 SHL SUB DUP4 DUP2 AND PUSH1 0x24 DUP4 ADD MSTORE PUSH1 0x44 DUP3 ADD DUP4 SWAP1 MSTORE PUSH2 0xBC7 SWAP2 DUP6 SWAP2 DUP3 AND SWAP1 PUSH4 0xA9059CBB SWAP1 PUSH1 0x64 ADD JUMPDEST PUSH1 0x40 MLOAD PUSH1 0x20 DUP2 DUP4 SUB SUB DUP2 MSTORE SWAP1 PUSH1 0x40 MSTORE SWAP2 POP PUSH1 0xE0 SHL PUSH1 0x20 DUP3 ADD DUP1 MLOAD PUSH1 0x1 PUSH1 0x1 PUSH1 0xE0 SHL SUB DUP4 DUP2 DUP4 AND OR DUP4 MSTORE POP POP POP POP PUSH2 0xC88 JUMP JUMPDEST POP POP POP JUMP JUMPDEST PUSH1 0x0 SLOAD PUSH1 0x1 PUSH1 0x1 PUSH1 0xA0 SHL SUB AND CALLER EQ PUSH2 0x3DB JUMPI PUSH1 0x40 MLOAD PUSH4 0x118CDAA7 PUSH1 0xE0 SHL DUP2 MSTORE CALLER PUSH1 0x4 DUP3 ADD MSTORE PUSH1 0x24 ADD PUSH2 0x394 JUMP JUMPDEST PUSH1 0x0 DUP1 SLOAD PUSH1 0x1 PUSH1 0x1 PUSH1 0xA0 SHL SUB DUP4 DUP2 AND PUSH1 0x1 PUSH1 0x1 PUSH1 0xA0 SHL SUB NOT DUP4 AND DUP2 OR DUP5 SSTORE PUSH1 0x40 MLOAD SWAP2 SWAP1 SWAP3 AND SWAP3 DUP4 SWAP2 PUSH32 0x8BE0079C531659141344CD1FD0A4F28419497F9722A3DAAFE3B4186F6B6457E0 SWAP2 SWAP1 LOG3 POP POP JUMP JUMPDEST PUSH1 0x40 MLOAD PUSH1 0x1 PUSH1 0x1 PUSH1 0xA0 SHL SUB DUP5 DUP2 AND PUSH1 0x24 DUP4 ADD MSTORE DUP4 DUP2 AND PUSH1 0x44 DUP4 ADD MSTORE PUSH1 0x64 DUP3 ADD DUP4 SWAP1 MSTORE PUSH2 0xC82 SWAP2 DUP7 SWAP2 DUP3 AND SWAP1 PUSH4 0x23B872DD SWAP1 PUSH1 0x84 ADD PUSH2 0xB95 JUMP JUMPDEST POP POP POP POP JUMP JUMPDEST PUSH1 0x0 PUSH2 0xC9D PUSH1 0x1 PUSH1 0x1 PUSH1 0xA0 SHL SUB DUP5 AND DUP4 PUSH2 0xCEB JUMP JUMPDEST SWAP1 POP DUP1 MLOAD PUSH1 0x0 EQ ISZERO DUP1 ISZERO PUSH2 0xCC2 JUMPI POP DUP1 DUP1 PUSH1 0x20 ADD SWAP1 MLOAD DUP2 ADD SWAP1 PUSH2 0xCC0 SWAP2 SWAP1 PUSH2 0xFA4 JUMP JUMPDEST ISZERO JUMPDEST ISZERO PUSH2 0xBC7 JUMPI PUSH1 0x40 MLOAD PUSH4 0x5274AFE7 PUSH1 0xE0 SHL DUP2 MSTORE PUSH1 0x1 PUSH1 0x1 PUSH1 0xA0 SHL SUB DUP5 AND PUSH1 0x4 DUP3 ADD MSTORE PUSH1 0x24 ADD PUSH2 0x394 JUMP JUMPDEST PUSH1 0x60 PUSH2 0xCF9 DUP4 DUP4 PUSH1 0x0 PUSH2 0xD00 JUMP JUMPDEST SWAP4 SWAP3 POP POP POP JUMP JUMPDEST PUSH1 0x60 DUP2 SELFBALANCE LT ISZERO PUSH2 0xD25 JUMPI PUSH1 0x40 MLOAD PUSH4 0xCD786059 PUSH1 0xE0 SHL DUP2 MSTORE ADDRESS PUSH1 0x4 DUP3 ADD MSTORE PUSH1 0x24 ADD PUSH2 0x394 JUMP JUMPDEST PUSH1 0x0 DUP1 DUP6 PUSH1 0x1 PUSH1 0x1 PUSH1 0xA0 SHL SUB AND DUP5 DUP7 PUSH1 0x40 MLOAD PUSH2 0xD41 SWAP2 SWAP1 PUSH2 0xFC6 JUMP JUMPDEST PUSH1 0x0 PUSH1 0x40 MLOAD DUP1 DUP4 SUB DUP2 DUP6 DUP8 GAS CALL SWAP3 POP POP POP RETURNDATASIZE DUP1 PUSH1 0x0 DUP2 EQ PUSH2 0xD7E JUMPI PUSH1 0x40 MLOAD SWAP2 POP PUSH1 0x1F NOT PUSH1 0x3F RETURNDATASIZE ADD AND DUP3 ADD PUSH1 0x40 MSTORE RETURNDATASIZE DUP3 MSTORE RETURNDATASIZE PUSH1 0x0 PUSH1 0x20 DUP5 ADD RETURNDATACOPY PUSH2 0xD83 JUMP JUMPDEST PUSH1 0x60 SWAP2 POP JUMPDEST POP SWAP2 POP SWAP2 POP PUSH2 0xD93 DUP7 DUP4 DUP4 PUSH2 0xD9D JUMP JUMPDEST SWAP7 SWAP6 POP POP POP POP POP POP JUMP JUMPDEST PUSH1 0x60 DUP3 PUSH2 0xDB2 JUMPI PUSH2 0xDAD DUP3 PUSH2 0xDF9 JUMP JUMPDEST PUSH2 0xCF9 JUMP JUMPDEST DUP2 MLOAD ISZERO DUP1 ISZERO PUSH2 0xDC9 JUMPI POP PUSH1 0x1 PUSH1 0x1 PUSH1 0xA0 SHL SUB DUP5 AND EXTCODESIZE ISZERO JUMPDEST ISZERO PUSH2 0xDF2 JUMPI PUSH1 0x40 MLOAD PUSH4 0x9996B315 PUSH1 0xE0 SHL DUP2 MSTORE PUSH1 0x1 PUSH1 0x1 PUSH1 0xA0 SHL SUB DUP6 AND PUSH1 0x4 DUP3 ADD MSTORE PUSH1 0x24 ADD PUSH2 0x394 JUMP JUMPDEST POP DUP1 PUSH2 0xCF9 JUMP JUMPDEST DUP1 MLOAD ISZERO PUSH2 0xE09 JUMPI DUP1 MLOAD DUP1 DUP3 PUSH1 0x20 ADD REVERT JUMPDEST PUSH1 0x40 MLOAD PUSH4 0xA12F521 PUSH1 0xE1 SHL DUP2 MSTORE PUSH1 0x4 ADD PUSH1 0x40 MLOAD DUP1 SWAP2 SUB SWAP1 REVERT JUMPDEST DUP1 CALLDATALOAD PUSH1 0x1 PUSH1 0x1 PUSH1 0xA0 SHL SUB DUP2 AND DUP2 EQ PUSH2 0xE39 JUMPI PUSH1 0x0 DUP1 REVERT JUMPDEST SWAP2 SWAP1 POP JUMP JUMPDEST PUSH1 0x0 DUP1 PUSH1 0x40 DUP4 DUP6 SUB SLT ISZERO PUSH2 0xE51 JUMPI PUSH1 0x0 DUP1 REVERT JUMPDEST PUSH2 0xE5A DUP4 PUSH2 0xE22 JUMP JUMPDEST SWAP5 PUSH1 0x20 SWAP4 SWAP1 SWAP4 ADD CALLDATALOAD SWAP4 POP POP POP JUMP JUMPDEST PUSH1 0x0 DUP1 PUSH1 0x40 DUP4 DUP6 SUB SLT ISZERO PUSH2 0xE7B JUMPI PUSH1 0x0 DUP1 REVERT JUMPDEST POP POP DUP1 CALLDATALOAD SWAP3 PUSH1 0x20 SWAP1 SWAP2 ADD CALLDATALOAD SWAP2 POP JUMP JUMPDEST PUSH1 0x0 PUSH1 0x20 DUP3 DUP5 SUB SLT ISZERO PUSH2 0xE9C JUMPI PUSH1 0x0 DUP1 REVERT JUMPDEST POP CALLDATALOAD SWAP2 SWAP1 POP JUMP JUMPDEST PUSH1 0x0 DUP1 PUSH1 0x40 DUP4 DUP6 SUB SLT ISZERO PUSH2 0xEB6 JUMPI PUSH1 0x0 DUP1 REVERT JUMPDEST DUP3 CALLDATALOAD SWAP2 POP PUSH2 0xEC6 PUSH1 0x20 DUP5 ADD PUSH2 0xE22 JUMP JUMPDEST SWAP1 POP SWAP3 POP SWAP3 SWAP1 POP JUMP JUMPDEST PUSH1 0x0 PUSH1 0x20 DUP3 DUP5 SUB SLT ISZERO PUSH2 0xEE1 JUMPI PUSH1 0x0 DUP1 REVERT JUMPDEST PUSH2 0xCF9 DUP3 PUSH2 0xE22 JUMP JUMPDEST PUSH4 0x4E487B71 PUSH1 0xE0 SHL PUSH1 0x0 MSTORE PUSH1 0x11 PUSH1 0x4 MSTORE PUSH1 0x24 PUSH1 0x0 REVERT JUMPDEST DUP1 DUP3 ADD DUP1 DUP3 GT ISZERO PUSH2 0x99D JUMPI PUSH2 0x99D PUSH2 0xEEA JUMP JUMPDEST DUP2 DUP2 SUB DUP2 DUP2 GT ISZERO PUSH2 0x99D JUMPI PUSH2 0x99D PUSH2 0xEEA JUMP JUMPDEST PUSH4 0x4E487B71 PUSH1 0xE0 SHL PUSH1 0x0 MSTORE PUSH1 0x32 PUSH1 0x4 MSTORE PUSH1 0x24 PUSH1 0x0 REVERT JUMPDEST PUSH1 0x20 DUP1 DUP3 MSTORE PUSH1 0x15 SWAP1 DUP3 ADD MSTORE PUSH21 0x14DD185ADA5B99CE88125B9D985B1A59081C1BDBDB PUSH1 0x5A SHL PUSH1 0x40 DUP3 ADD MSTORE PUSH1 0x60 ADD SWAP1 JUMP JUMPDEST DUP1 DUP3 MUL DUP2 ISZERO DUP3 DUP3 DIV DUP5 EQ OR PUSH2 0x99D JUMPI PUSH2 0x99D PUSH2 0xEEA JUMP JUMPDEST PUSH1 0x0 DUP3 PUSH2 0xF9F JUMPI PUSH4 0x4E487B71 PUSH1 0xE0 SHL PUSH1 0x0 MSTORE PUSH1 0x12 PUSH1 0x4 MSTORE PUSH1 0x24 PUSH1 0x0 REVERT JUMPDEST POP DIV SWAP1 JUMP JUMPDEST PUSH1 0x0 PUSH1 0x20 DUP3 DUP5 SUB SLT ISZERO PUSH2 0xFB6 JUMPI PUSH1 0x0 DUP1 REVERT JUMPDEST DUP2 MLOAD DUP1 ISZERO ISZERO DUP2 EQ PUSH2 0xCF9 JUMPI PUSH1 0x0 DUP1 REVERT JUMPDEST PUSH1 0x0 DUP3 MLOAD PUSH1 0x0 JUMPDEST DUP2 DUP2 LT ISZERO PUSH2 0xFE7 JUMPI PUSH1 0x20 DUP2 DUP7 ADD DUP2 ADD MLOAD DUP6 DUP4 ADD MSTORE ADD PUSH2 0xFCD JUMP JUMPDEST POP PUSH1 0x0 SWAP3 ADD SWAP2 DUP3 MSTORE POP SWAP2 SWAP1 POP JUMP INVALID LOG2 PUSH5 0x6970667358 0x22 SLT KECCAK256 0x1E 0x4E 0x2B 0x24 0xBF 0xD4 0xB8 REVERT 0x1F BYTE ADDMOD 0x4B 0xE4 0xEA 0xD1 SWAP3 SWAP4 0xD1 JUMPDEST PUSH32 0x2F195AE3E51E0E559D8799BD64736F6C63430008180033000000000000000000 "},"methodIdentifiers":{"addPool(address,uint256)":"32a9caba","claimAllRewards()":"0b83a727","claimReward(uint256)":"ae169a50","depositRewards(uint256)":"8bdf67f2","owner()":"8da5cb5b","pendingReward(uint256,address)":"98969e82","poolLength()":"081e3eda","pools(uint256)":"ac4afa38","renounceOwnership()":"715018a6","rewardToken()":"f7c618c1","setPoolAPR(uint256,uint256)":"43fb9263","stake(uint256,uint256)":"7b0472f0","transferOwnership(address)":"f2fde38b","userInfo(uint256,address)":"93f1a40b","withdraw(uint256,uint256)":"441a3e70"}}}}}