{
  "_format": "hh-sol-artifact-1",
  "contractName": "RialoNFT",
  "sourceName": "contracts/RialoNFT.sol",
  "abi": [
    {
      "inputs": [
        {
          "internalType": "address",
          "name": "initialOwner",
          "type": "address"
        },
        {
          "internalType": "string",
          "name": "_baseURI",
          "type": "string"
        }
      ],
      "stateMutability": "nonpayable",
      "type": "constructor"
    },
    {
      "inputs": [],
      "name": "ERC721EnumerableForbiddenBatchMint",
      "type": "error"
    },
    {
      "inputs": [
        {
          "internalType": "address",
          "name": "sender",
          "type": "address"
        },
        {
          "internalType": "uint256",
          "name": "tokenId",
          "type": "uint256"
        },
        {
          "internalType": "address",
          "name": "owner",
          "type": "address"
        }
      ],
      "name": "ERC721IncorrectOwner",
      "type": "error"
    },
    {
      "inputs": [
        {
          "internalType": "address",
          "name": "operator",
          "type": "address"
        },
        {
          "internalType": "uint256",
          "name": "tokenId",
          "type": "uint256"
        }
      ],
      "name": "ERC721InsufficientApproval",
      "type": "error"
    },
    {
      "inputs": [
        {
          "internalType": "address",
          "name": "approver",
          "type": "address"
        }
      ],
      "name": "ERC721InvalidApprover",
      "type": "error"
    },
    {
      "inputs": [
        {
          "internalType": "address",
          "name": "operator",
          "type": "address"
        }
      ],
      "name": "ERC721InvalidOperator",
      "type": "error"
    },
    {
      "inputs": [
        {
          "internalType": "address",
          "name": "owner",
          "type": "address"
        }
      ],
      "name": "ERC721InvalidOwner",
      "type": "error"
    },
    {
      "inputs": [
        {
          "internalType": "address",
          "name": "receiver",
          "type": "address"
        }
      ],
      "name": "ERC721InvalidReceiver",
      "type": "error"
    },
    {
      "inputs": [
        {
          "internalType": "address",
          "name": "sender",
          "type": "address"
        }
      ],
      "name": "ERC721InvalidSender",
      "type": "error"
    },
    {
      "inputs": [
        {
          "internalType": "uint256",
          "name": "tokenId",
          "type": "uint256"
        }
      ],
      "name": "ERC721NonexistentToken",
      "type": "error"
    },
    {
      "inputs": [
        {
          "internalType": "address",
          "name": "owner",
          "type": "address"
        },
        {
          "internalType": "uint256",
          "name": "index",
          "type": "uint256"
        }
      ],
      "name": "ERC721OutOfBoundsIndex",
      "type": "error"
    },
    {
      "inputs": [
        {
          "internalType": "address",
          "name": "owner",
          "type": "address"
        }
      ],
      "name": "OwnableInvalidOwner",
      "type": "error"
    },
    {
      "inputs": [
        {
          "internalType": "address",
          "name": "account",
          "type": "address"
        }
      ],
      "name": "OwnableUnauthorizedAccount",
      "type": "error"
    },
    {
      "inputs": [],
      "name": "ReentrancyGuardReentrantCall",
      "type": "error"
    },
    {
      "anonymous": false,
      "inputs": [
        {
          "indexed": true,
          "internalType": "address",
          "name": "owner",
          "type": "address"
        },
        {
          "indexed": true,
          "internalType": "address",
          "name": "approved",
          "type": "address"
        },
        {
          "indexed": true,
          "internalType": "uint256",
          "name": "tokenId",
          "type": "uint256"
        }
      ],
      "name": "Approval",
      "type": "event"
    },
    {
      "anonymous": false,
      "inputs": [
        {
          "indexed": true,
          "internalType": "address",
          "name": "owner",
          "type": "address"
        },
        {
          "indexed": true,
          "internalType": "address",
          "name": "operator",
          "type": "address"
        },
        {
          "indexed": false,
          "internalType": "bool",
          "name": "approved",
          "type": "bool"
        }
      ],
      "name": "ApprovalForAll",
      "type": "event"
    },
    {
      "anonymous": false,
      "inputs": [
        {
          "indexed": true,
          "internalType": "address",
          "name": "to",
          "type": "address"
        },
        {
          "indexed": true,
          "internalType": "uint256",
          "name": "tokenId",
          "type": "uint256"
        }
      ],
      "name": "NFTMinted",
      "type": "event"
    },
    {
      "anonymous": false,
      "inputs": [
        {
          "indexed": true,
          "internalType": "address",
          "name": "previousOwner",
          "type": "address"
        },
        {
          "indexed": true,
          "internalType": "address",
          "name": "newOwner",
          "type": "address"
        }
      ],
      "name": "OwnershipTransferred",
      "type": "event"
    },
    {
      "anonymous": false,
      "inputs": [
        {
          "indexed": true,
          "internalType": "address",
          "name": "from",
          "type": "address"
        },
        {
          "indexed": true,
          "internalType": "address",
          "name": "to",
          "type": "address"
        },
        {
          "indexed": true,
          "internalType": "uint256",
          "name": "tokenId",
          "type": "uint256"
        }
      ],
      "name": "Transfer",
      "type": "event"
    },
    {
      "inputs": [],
      "name": "MAX_PER_WALLET",
      "outputs": [
        {
          "internalType": "uint256",
          "name": "",
          "type": "uint256"
        }
      ],
      "stateMutability": "view",
      "type": "function"
    },
    {
      "inputs": [],
      "name": "MAX_SUPPLY",
      "outputs": [
        {
          "internalType": "uint256",
          "name": "",
          "type": "uint256"
        }
      ],
      "stateMutability": "view",
      "type": "function"
    },
    {
      "inputs": [
        {
          "internalType": "address",
          "name": "to",
          "type": "address"
        },
        {
          "internalType": "uint256",
          "name": "tokenId",
          "type": "uint256"
        }
      ],
      "name": "approve",
      "outputs": [],
      "stateMutability": "nonpayable",
      "type": "function"
    },
    {
      "inputs": [
        {
          "internalType": "address",
          "name": "owner",
          "type": "address"
        }
      ],
      "name": "balanceOf",
      "outputs": [
        {
          "internalType": "uint256",
          "name": "",
          "type": "uint256"
        }
      ],
      "stateMutability": "view",
      "type": "function"
    },
    {
      "inputs": [],
      "name": "baseURI",
      "outputs": [
        {
          "internalType": "string",
          "name": "",
          "type": "string"
        }
      ],
      "stateMutability": "view",
      "type": "function"
    },
    {
      "inputs": [],
      "name": "freeMint",
      "outputs": [],
      "stateMutability": "nonpayable",
      "type": "function"
    },
    {
      "inputs": [
        {
          "internalType": "uint256",
          "name": "tokenId",
          "type": "uint256"
        }
      ],
      "name": "getApproved",
      "outputs": [
        {
          "internalType": "address",
          "name": "",
          "type": "address"
        }
      ],
      "stateMutability": "view",
      "type": "function"
    },
    {
      "inputs": [
        {
          "internalType": "address",
          "name": "owner",
          "type": "address"
        },
        {
          "internalType": "address",
          "name": "operator",
          "type": "address"
        }
      ],
      "name": "isApprovedForAll",
      "outputs": [
        {
          "internalType": "bool",
          "name": "",
          "type": "bool"
        }
      ],
      "stateMutability": "view",
      "type": "function"
    },
    {
      "inputs": [
        {
          "internalType": "uint256",
          "name": "quantity",
          "type": "uint256"
        }
      ],
      "name": "mint",
      "outputs": [],
      "stateMutability": "payable",
      "type": "function"
    },
    {
      "inputs": [],
      "name": "mintPrice",
      "outputs": [
        {
          "internalType": "uint256",
          "name": "",
          "type": "uint256"
        }
      ],
      "stateMutability": "view",
      "type": "function"
    },
    {
      "inputs": [
        {
          "internalType": "address",
          "name": "",
          "type": "address"
        }
      ],
      "name": "mintedPerWallet",
      "outputs": [
        {
          "internalType": "uint256",
          "name": "",
          "type": "uint256"
        }
      ],
      "stateMutability": "view",
      "type": "function"
    },
    {
      "inputs": [],
      "name": "name",
      "outputs": [
        {
          "internalType": "string",
          "name": "",
          "type": "string"
        }
      ],
      "stateMutability": "view",
      "type": "function"
    },
    {
      "inputs": [],
      "name": "owner",
      "outputs": [
        {
          "internalType": "address",
          "name": "",
          "type": "address"
        }
      ],
      "stateMutability": "view",
      "type": "function"
    },
    {
      "inputs": [
        {
          "internalType": "uint256",
          "name": "tokenId",
          "type": "uint256"
        }
      ],
      "name": "ownerOf",
      "outputs": [
        {
          "internalType": "address",
          "name": "",
          "type": "address"
        }
      ],
      "stateMutability": "view",
      "type": "function"
    },
    {
      "inputs": [],
      "name": "renounceOwnership",
      "outputs": [],
      "stateMutability": "nonpayable",
      "type": "function"
    },
    {
      "inputs": [
        {
          "internalType": "address",
          "name": "from",
          "type": "address"
        },
        {
          "internalType": "address",
          "name": "to",
          "type": "address"
        },
        {
          "internalType": "uint256",
          "name": "tokenId",
          "type": "uint256"
        }
      ],
      "name": "safeTransferFrom",
      "outputs": [],
      "stateMutability": "nonpayable",
      "type": "function"
    },
    {
      "inputs": [
        {
          "internalType": "address",
          "name": "from",
          "type": "address"
        },
        {
          "internalType": "address",
          "name": "to",
          "type": "address"
        },
        {
          "internalType": "uint256",
          "name": "tokenId",
          "type": "uint256"
        },
        {
          "internalType": "bytes",
          "name": "data",
          "type": "bytes"
        }
      ],
      "name": "safeTransferFrom",
      "outputs": [],
      "stateMutability": "nonpayable",
      "type": "function"
    },
    {
      "inputs": [
        {
          "internalType": "address",
          "name": "operator",
          "type": "address"
        },
        {
          "internalType": "bool",
          "name": "approved",
          "type": "bool"
        }
      ],
      "name": "setApprovalForAll",
      "outputs": [],
      "stateMutability": "nonpayable",
      "type": "function"
    },
    {
      "inputs": [
        {
          "internalType": "string",
          "name": "_baseURI",
          "type": "string"
        }
      ],
      "name": "setBaseURI",
      "outputs": [],
      "stateMutability": "nonpayable",
      "type": "function"
    },
    {
      "inputs": [
        {
          "internalType": "uint256",
          "name": "_price",
          "type": "uint256"
        }
      ],
      "name": "setMintPrice",
      "outputs": [],
      "stateMutability": "nonpayable",
      "type": "function"
    },
    {
      "inputs": [
        {
          "internalType": "bytes4",
          "name": "interfaceId",
          "type": "bytes4"
        }
      ],
      "name": "supportsInterface",
      "outputs": [
        {
          "internalType": "bool",
          "name": "",
          "type": "bool"
        }
      ],
      "stateMutability": "view",
      "type": "function"
    },
    {
      "inputs": [],
      "name": "symbol",
      "outputs": [
        {
          "internalType": "string",
          "name": "",
          "type": "string"
        }
      ],
      "stateMutability": "view",
      "type": "function"
    },
    {
      "inputs": [
        {
          "internalType": "uint256",
          "name": "index",
          "type": "uint256"
        }
      ],
      "name": "tokenByIndex",
      "outputs": [
        {
          "internalType": "uint256",
          "name": "",
          "type": "uint256"
        }
      ],
      "stateMutability": "view",
      "type": "function"
    },
    {
      "inputs": [
        {
          "internalType": "address",
          "name": "owner",
          "type": "address"
        },
        {
          "internalType": "uint256",
          "name": "index",
          "type": "uint256"
        }
      ],
      "name": "tokenOfOwnerByIndex",
      "outputs": [
        {
          "internalType": "uint256",
          "name": "",
          "type": "uint256"
        }
      ],
      "stateMutability": "view",
      "type": "function"
    },
    {
      "inputs": [
        {
          "internalType": "uint256",
          "name": "tokenId",
          "type": "uint256"
        }
      ],
      "name": "tokenURI",
      "outputs": [
        {
          "internalType": "string",
          "name": "",
          "type": "string"
        }
      ],
      "stateMutability": "view",
      "type": "function"
    },
    {
      "inputs": [],
      "name": "totalMinted",
      "outputs": [
        {
          "internalType": "uint256",
          "name": "",
          "type": "uint256"
        }
      ],
      "stateMutability": "view",
      "type": "function"
    },
    {
      "inputs": [],
      "name": "totalSupply",
      "outputs": [
        {
          "internalType": "uint256",
          "name": "",
          "type": "uint256"
        }
      ],
      "stateMutability": "view",
      "type": "function"
    },
    {
      "inputs": [
        {
          "internalType": "address",
          "name": "from",
          "type": "address"
        },
        {
          "internalType": "address",
          "name": "to",
          "type": "address"
        },
        {
          "internalType": "uint256",
          "name": "tokenId",
          "type": "uint256"
        }
      ],
      "name": "transferFrom",
      "outputs": [],
      "stateMutability": "nonpayable",
      "type": "function"
    },
    {
      "inputs": [
        {
          "internalType": "address",
          "name": "newOwner",
          "type": "address"
        }
      ],
      "name": "transferOwnership",
      "outputs": [],
      "stateMutability": "nonpayable",
      "type": "function"
    },
    {
      "inputs": [
        {
          "internalType": "address",
          "name": "wallet",
          "type": "address"
        }
      ],
      "name": "walletTokens",
      "outputs": [
        {
          "internalType": "uint256[]",
          "name": "",
          "type": "uint256[]"
        }
      ],
      "stateMutability": "view",
      "type": "function"
    },
    {
      "inputs": [],
      "name": "withdraw",
      "outputs": [],
      "stateMutability": "nonpayable",
      "type": "function"
    }
  ],
  "bytecode": "0x6080604052662386f26fc10000600c556001600e553480156200002157600080fd5b506040516200233e3803806200233e833981016040819052620000449162000166565b8160405180604001604052806009815260200168149a585b1bc813919560ba1b815250604051806040016040528060048152602001631493919560e21b8152508160009081620000959190620002ed565b506001620000a48282620002ed565b5050506001600160a01b038116620000d657604051631e4fbdf760e01b81526000600482015260240160405180910390fd5b620000e181620000fe565b506001600b55600d620000f58282620002ed565b505050620003b9565b600a80546001600160a01b038381166001600160a01b0319831681179093556040519116919082907f8be0079c531659141344cd1fd0a4f28419497f9722a3daafe3b4186f6b6457e090600090a35050565b634e487b7160e01b600052604160045260246000fd5b600080604083850312156200017a57600080fd5b82516001600160a01b03811681146200019257600080fd5b602084810151919350906001600160401b0380821115620001b257600080fd5b818601915086601f830112620001c757600080fd5b815181811115620001dc57620001dc62000150565b604051601f8201601f19908116603f0116810190838211818310171562000207576200020762000150565b8160405282815289868487010111156200022057600080fd5b600093505b8284101562000244578484018601518185018701529285019262000225565b60008684830101528096505050505050509250929050565b600181811c908216806200027157607f821691505b6020821081036200029257634e487b7160e01b600052602260045260246000fd5b50919050565b601f821115620002e8576000816000526020600020601f850160051c81016020861015620002c35750805b601f850160051c820191505b81811015620002e457828155600101620002cf565b5050505b505050565b81516001600160401b0381111562000309576200030962000150565b62000321816200031a84546200025c565b8462000298565b602080601f831160018114620003595760008415620003405750858301515b600019600386901b1c1916600185901b178555620002e4565b600085815260208120601f198616915b828110156200038a5788860151825594840194600190910190840162000369565b5085821015620003a95787850151600019600388901b60f8161c191681555b5050505050600190811b01905550565b611f7580620003c96000396000f3fe6080604052600436106101d85760003560e01c80636352211e11610102578063a22cb46511610095578063e985e9c511610064578063e985e9c51461050e578063f2fde38b1461052e578063f4a0a5281461054e578063f99928031461056e57600080fd5b8063a22cb46514610499578063a2309ff8146104b9578063b88d4fde146104ce578063c87b56dd146104ee57600080fd5b8063715018a6116100d1578063715018a61461043e5780638da5cb5b1461045357806395d89b4114610471578063a0712d681461048657600080fd5b80636352211e146103d35780636817c76c146103f35780636c0360eb1461040957806370a082311461041e57600080fd5b80632f745c591161017a57806342842e0e1161014957806342842e0e1461035e5780634f6ccce71461037e57806355f804b31461039e5780635b70ea9f146103be57600080fd5b80632f745c59146102e657806332cb6b0c146103065780633a602b4d1461031c5780633ccfd60b1461034957600080fd5b8063095ea7b3116101b6578063095ea7b31461026c5780630f2cdd6c1461028e57806318160ddd146102b157806323b872dd146102c657600080fd5b806301ffc9a7146101dd57806306fdde0314610212578063081812fc14610234575b600080fd5b3480156101e957600080fd5b506101fd6101f836600461192b565b61059b565b60405190151581526020015b60405180910390f35b34801561021e57600080fd5b506102276105c6565b604051610209919061199f565b34801561024057600080fd5b5061025461024f3660046119b2565b610658565b6040516001600160a01b039091168152602001610209565b34801561027857600080fd5b5061028c6102873660046119e7565b610681565b005b34801561029a57600080fd5b506102a3600a81565b604051908152602001610209565b3480156102bd57600080fd5b506008546102a3565b3480156102d257600080fd5b5061028c6102e1366004611a11565b610690565b3480156102f257600080fd5b506102a36103013660046119e7565b610720565b34801561031257600080fd5b506102a361271081565b34801561032857600080fd5b506102a3610337366004611a4d565b600f6020526000908152604090205481565b34801561035557600080fd5b5061028c610785565b34801561036a57600080fd5b5061028c610379366004611a11565b610844565b34801561038a57600080fd5b506102a36103993660046119b2565b610864565b3480156103aa57600080fd5b5061028c6103b9366004611af4565b6108bd565b3480156103ca57600080fd5b5061028c6108d1565b3480156103df57600080fd5b506102546103ee3660046119b2565b610a14565b3480156103ff57600080fd5b506102a3600c5481565b34801561041557600080fd5b50610227610a1f565b34801561042a57600080fd5b506102a3610439366004611a4d565b610aad565b34801561044a57600080fd5b5061028c610af5565b34801561045f57600080fd5b50600a546001600160a01b0316610254565b34801561047d57600080fd5b50610227610b07565b61028c6104943660046119b2565b610b16565b3480156104a557600080fd5b5061028c6104b4366004611b3d565b610d34565b3480156104c557600080fd5b506102a3610d3f565b3480156104da57600080fd5b5061028c6104e9366004611b79565b610d55565b3480156104fa57600080fd5b506102276105093660046119b2565b610d6c565b34801561051a57600080fd5b506101fd610529366004611bf5565b610dd4565b34801561053a57600080fd5b5061028c610549366004611a4d565b610e02565b34801561055a57600080fd5b5061028c6105693660046119b2565b610e3d565b34801561057a57600080fd5b5061058e610589366004611a4d565b610e4a565b6040516102099190611c28565b60006001600160e01b0319821663780e9d6360e01b14806105c057506105c082610ee2565b92915050565b6060600080546105d590611c6c565b80601f016020809104026020016040519081016040528092919081815260200182805461060190611c6c565b801561064e5780601f106106235761010080835404028352916020019161064e565b820191906000526020600020905b81548152906001019060200180831161063157829003601f168201915b5050505050905090565b600061066382610f32565b506000828152600460205260409020546001600160a01b03166105c0565b61068c828233610f6b565b5050565b6001600160a01b0382166106bf57604051633250574960e11b8152600060048201526024015b60405180910390fd5b60006106cc838333610f78565b9050836001600160a01b0316816001600160a01b03161461071a576040516364283d7b60e01b81526001600160a01b03808616600483015260248201849052821660448201526064016106b6565b50505050565b600061072b83610aad565b821061075c5760405163295f44f760e21b81526001600160a01b0384166004820152602481018390526044016106b6565b506001600160a01b03919091166000908152600660209081526040808320938352929052205490565b61078d61104d565b60006107a1600a546001600160a01b031690565b6001600160a01b03164760405160006040518083038185875af1925050503d80600081146107eb576040519150601f19603f3d011682016040523d82523d6000602084013e6107f0565b606091505b50509050806108415760405162461bcd60e51b815260206004820152601960248201527f5269616c6f4e46543a205769746864726177206661696c65640000000000000060448201526064016106b6565b50565b61085f83838360405180602001604052806000815250610d55565b505050565b600061086f60085490565b82106108985760405163295f44f760e21b815260006004820152602481018390526044016106b6565b600882815481106108ab576108ab611ca6565b90600052602060002001549050919050565b6108c561104d565b600d61068c8282611d0c565b6108d961107a565b612710600e54111561092d5760405162461bcd60e51b815260206004820152601c60248201527f5269616c6f4e46543a2045786365656473206d617820737570706c790000000060448201526064016106b6565b336000908152600f6020526040902054156109945760405162461bcd60e51b815260206004820152602160248201527f5269616c6f4e46543a20416c7265616479206d696e7465642066726565204e466044820152601560fa1b60648201526084016106b6565b336000908152600f602052604081208054600192906109b4908490611de2565b9091555050600e8054600091826109ca83611df5565b9190505590506109da33826110a4565b604051819033907f4cc0a9c4a99ddc700de1af2c9f916a7cbfdb71f14801ccff94061ad1ef8a804090600090a350610a126001600b55565b565b60006105c082610f32565b600d8054610a2c90611c6c565b80601f0160208091040260200160405190810160405280929190818152602001828054610a5890611c6c565b8015610aa55780601f10610a7a57610100808354040283529160200191610aa5565b820191906000526020600020905b815481529060010190602001808311610a8857829003601f168201915b505050505081565b60006001600160a01b038216610ad9576040516322718ad960e21b8152600060048201526024016106b6565b506001600160a01b031660009081526003602052604090205490565b610afd61104d565b610a1260006110be565b6060600180546105d590611c6c565b610b1e61107a565b60008111610b6e5760405162461bcd60e51b815260206004820152601e60248201527f5269616c6f4e46543a205175616e74697479206d757374206265203e2030000060448201526064016106b6565b612710600182600e54610b819190611de2565b610b8b9190611e0e565b1115610bd95760405162461bcd60e51b815260206004820152601c60248201527f5269616c6f4e46543a2045786365656473206d617820737570706c790000000060448201526064016106b6565b336000908152600f6020526040902054600a90610bf7908390611de2565b1115610c455760405162461bcd60e51b815260206004820152601e60248201527f5269616c6f4e46543a20457863656564732077616c6c6574206c696d6974000060448201526064016106b6565b80600c54610c539190611e21565b341015610ca25760405162461bcd60e51b815260206004820152601a60248201527f5269616c6f4e46543a20496e73756666696369656e742045544800000000000060448201526064016106b6565b336000908152600f602052604081208054839290610cc1908490611de2565b90915550600090505b81811015610d2957600e805460009182610ce383611df5565b919050559050610cf333826110a4565b604051819033907f4cc0a9c4a99ddc700de1af2c9f916a7cbfdb71f14801ccff94061ad1ef8a804090600090a350600101610cca565b506108416001600b55565b61068c338383611110565b60006001600e54610d509190611e0e565b905090565b610d60848484610690565b61071a848484846111af565b6060610d7782610f32565b506000600d8054610d8790611c6c565b905011610da357604051806020016040528060008152506105c0565b600d610dae836112d8565b604051602001610dbf929190611e38565b60405160208183030381529060405292915050565b6001600160a01b03918216600090815260056020908152604080832093909416825291909152205460ff1690565b610e0a61104d565b6001600160a01b038116610e3457604051631e4fbdf760e01b8152600060048201526024016106b6565b610841816110be565b610e4561104d565b600c55565b60606000610e5783610aad565b905060008167ffffffffffffffff811115610e7457610e74611a68565b604051908082528060200260200182016040528015610e9d578160200160208202803683370190505b50905060005b82811015610eda57610eb58582610720565b828281518110610ec757610ec7611ca6565b6020908102919091010152600101610ea3565b509392505050565b60006001600160e01b031982166380ac58cd60e01b1480610f1357506001600160e01b03198216635b5e139f60e01b145b806105c057506301ffc9a760e01b6001600160e01b03198316146105c0565b6000818152600260205260408120546001600160a01b0316806105c057604051637e27328960e01b8152600481018490526024016106b6565b61085f838383600161136b565b600080610f86858585611471565b90506001600160a01b038116610fe357610fde84600880546000838152600960205260408120829055600182018355919091527ff3f7a9fe364faab93b216da50a3214154f22a0a2b415b23a84c8169e8b636ee30155565b611006565b846001600160a01b0316816001600160a01b03161461100657611006818561156a565b6001600160a01b0385166110225761101d846115fb565b611045565b846001600160a01b0316816001600160a01b0316146110455761104585856116aa565b949350505050565b600a546001600160a01b03163314610a125760405163118cdaa760e01b81523360048201526024016106b6565b6002600b540361109d57604051633ee5aeb560e01b815260040160405180910390fd5b6002600b55565b61068c8282604051806020016040528060008152506116fa565b600a80546001600160a01b038381166001600160a01b0319831681179093556040519116919082907f8be0079c531659141344cd1fd0a4f28419497f9722a3daafe3b4186f6b6457e090600090a35050565b6001600160a01b03821661114257604051630b61174360e31b81526001600160a01b03831660048201526024016106b6565b6001600160a01b03838116600081815260056020908152604080832094871680845294825291829020805460ff191686151590811790915591519182527f17307eab39ab6107e8899845ad3d59bd9653f200f220920489ca2b5937696c31910160405180910390a3505050565b6001600160a01b0383163b1561071a57604051630a85bd0160e11b81526001600160a01b0384169063150b7a02906111f1903390889087908790600401611ecf565b6020604051808303816000875af192505050801561122c575060408051601f3d908101601f1916820190925261122991810190611f0c565b60015b611295573d80801561125a576040519150601f19603f3d011682016040523d82523d6000602084013e61125f565b606091505b50805160000361128d57604051633250574960e11b81526001600160a01b03851660048201526024016106b6565b805181602001fd5b6001600160e01b03198116630a85bd0160e11b146112d157604051633250574960e11b81526001600160a01b03851660048201526024016106b6565b5050505050565b606060006112e583611711565b600101905060008167ffffffffffffffff81111561130557611305611a68565b6040519080825280601f01601f19166020018201604052801561132f576020820181803683370190505b5090508181016020015b600019016f181899199a1a9b1b9c1cb0b131b232b360811b600a86061a8153600a850494508461133957509392505050565b808061137f57506001600160a01b03821615155b1561144157600061138f84610f32565b90506001600160a01b038316158015906113bb5750826001600160a01b0316816001600160a01b031614155b80156113ce57506113cc8184610dd4565b155b156113f75760405163a9fbf51f60e01b81526001600160a01b03841660048201526024016106b6565b811561143f5783856001600160a01b0316826001600160a01b03167f8c5be1e5ebec7d5bd14f71427d1e84f3dd0314c0f7b2291e5b200ac8c7c3b92560405160405180910390a45b505b5050600090815260046020526040902080546001600160a01b0319166001600160a01b0392909216919091179055565b6000828152600260205260408120546001600160a01b039081169083161561149e5761149e8184866117e9565b6001600160a01b038116156114dc576114bb60008560008061136b565b6001600160a01b038116600090815260036020526040902080546000190190555b6001600160a01b0385161561150b576001600160a01b0385166000908152600360205260409020805460010190555b60008481526002602052604080822080546001600160a01b0319166001600160a01b0389811691821790925591518793918516917fddf252ad1be2c89b69c2b068fc378daa952ba7f163c4a11628f55a4df523b3ef91a4949350505050565b600061157583610aad565b6000838152600760205260409020549091508082146115c8576001600160a01b03841660009081526006602090815260408083208584528252808320548484528184208190558352600790915290208190555b5060009182526007602090815260408084208490556001600160a01b039094168352600681528383209183525290812055565b60085460009061160d90600190611e0e565b6000838152600960205260408120546008805493945090928490811061163557611635611ca6565b90600052602060002001549050806008838154811061165657611656611ca6565b600091825260208083209091019290925582815260099091526040808220849055858252812055600880548061168e5761168e611f29565b6001900381819060005260206000200160009055905550505050565b600060016116b784610aad565b6116c19190611e0e565b6001600160a01b039093166000908152600660209081526040808320868452825280832085905593825260079052919091209190915550565b611704838361184d565b61085f60008484846111af565b60008072184f03e93ff9f4daa797ed6e38ed64bf6a1f0160401b83106117505772184f03e93ff9f4daa797ed6e38ed64bf6a1f0160401b830492506040015b6d04ee2d6d415b85acef8100000000831061177c576d04ee2d6d415b85acef8100000000830492506020015b662386f26fc10000831061179a57662386f26fc10000830492506010015b6305f5e10083106117b2576305f5e100830492506008015b61271083106117c657612710830492506004015b606483106117d8576064830492506002015b600a83106105c05760010192915050565b6117f48383836118b2565b61085f576001600160a01b03831661182257604051637e27328960e01b8152600481018290526024016106b6565b60405163177e802f60e01b81526001600160a01b0383166004820152602481018290526044016106b6565b6001600160a01b03821661187757604051633250574960e11b8152600060048201526024016106b6565b600061188583836000610f78565b90506001600160a01b0381161561085f576040516339e3563760e11b8152600060048201526024016106b6565b60006001600160a01b038316158015906110455750826001600160a01b0316846001600160a01b031614806118ec57506118ec8484610dd4565b806110455750506000908152600460205260409020546001600160a01b03908116911614919050565b6001600160e01b03198116811461084157600080fd5b60006020828403121561193d57600080fd5b813561194881611915565b9392505050565b60005b8381101561196a578181015183820152602001611952565b50506000910152565b6000815180845261198b81602086016020860161194f565b601f01601f19169290920160200192915050565b6020815260006119486020830184611973565b6000602082840312156119c457600080fd5b5035919050565b80356001600160a01b03811681146119e257600080fd5b919050565b600080604083850312156119fa57600080fd5b611a03836119cb565b946020939093013593505050565b600080600060608486031215611a2657600080fd5b611a2f846119cb565b9250611a3d602085016119cb565b9150604084013590509250925092565b600060208284031215611a5f57600080fd5b611948826119cb565b634e487b7160e01b600052604160045260246000fd5b600067ffffffffffffffff80841115611a9957611a99611a68565b604051601f8501601f19908116603f01168101908282118183101715611ac157611ac1611a68565b81604052809350858152868686011115611ada57600080fd5b858560208301376000602087830101525050509392505050565b600060208284031215611b0657600080fd5b813567ffffffffffffffff811115611b1d57600080fd5b8201601f81018413611b2e57600080fd5b61104584823560208401611a7e565b60008060408385031215611b5057600080fd5b611b59836119cb565b915060208301358015158114611b6e57600080fd5b809150509250929050565b60008060008060808587031215611b8f57600080fd5b611b98856119cb565b9350611ba6602086016119cb565b925060408501359150606085013567ffffffffffffffff811115611bc957600080fd5b8501601f81018713611bda57600080fd5b611be987823560208401611a7e565b91505092959194509250565b60008060408385031215611c0857600080fd5b611c11836119cb565b9150611c1f602084016119cb565b90509250929050565b6020808252825182820181905260009190848201906040850190845b81811015611c6057835183529284019291840191600101611c44565b50909695505050505050565b600181811c90821680611c8057607f821691505b602082108103611ca057634e487b7160e01b600052602260045260246000fd5b50919050565b634e487b7160e01b600052603260045260246000fd5b601f82111561085f576000816000526020600020601f850160051c81016020861015611ce55750805b601f850160051c820191505b81811015611d0457828155600101611cf1565b505050505050565b815167ffffffffffffffff811115611d2657611d26611a68565b611d3a81611d348454611c6c565b84611cbc565b602080601f831160018114611d6f5760008415611d575750858301515b600019600386901b1c1916600185901b178555611d04565b600085815260208120601f198616915b82811015611d9e57888601518255948401946001909101908401611d7f565b5085821015611dbc5787850151600019600388901b60f8161c191681555b5050505050600190811b01905550565b634e487b7160e01b600052601160045260246000fd5b808201808211156105c0576105c0611dcc565b600060018201611e0757611e07611dcc565b5060010190565b818103818111156105c0576105c0611dcc565b80820281158282048414176105c0576105c0611dcc565b6000808454611e4681611c6c565b60018281168015611e5e5760018114611e7357611ea2565b60ff1984168752821515830287019450611ea2565b8860005260208060002060005b85811015611e995781548a820152908401908201611e80565b50505082870194505b505050508351611eb681836020880161194f565b64173539b7b760d91b9101908152600501949350505050565b6001600160a01b0385811682528416602082015260408101839052608060608201819052600090611f0290830184611973565b9695505050505050565b600060208284031215611f1e57600080fd5b815161194881611915565b634e487b7160e01b600052603160045260246000fdfea264697066735822122006c9f2300e383d246bd6050b79892b1786a5cc6c6b311f3687ba64f6f40cff7764736f6c63430008180033",
  "linkReferences": {},
  "deployedLinkReferences": {}
}