{
  "_format": "hh-sol-artifact-1",
  "contractName": "RialoToken",
  "sourceName": "contracts/RialoToken.sol",
  "abi": [
    {
      "inputs": [
        {
          "internalType": "address",
          "name": "initialOwner",
          "type": "address"
        }
      ],
      "stateMutability": "nonpayable",
      "type": "constructor"
    },
    {
      "inputs": [
        {
          "internalType": "address",
          "name": "spender",
          "type": "address"
        },
        {
          "internalType": "uint256",
          "name": "allowance",
          "type": "uint256"
        },
        {
          "internalType": "uint256",
          "name": "needed",
          "type": "uint256"
        }
      ],
      "name": "ERC20InsufficientAllowance",
      "type": "error"
    },
    {
      "inputs": [
        {
          "internalType": "address",
          "name": "sender",
          "type": "address"
        },
        {
          "internalType": "uint256",
          "name": "balance",
          "type": "uint256"
        },
        {
          "internalType": "uint256",
          "name": "needed",
          "type": "uint256"
        }
      ],
      "name": "ERC20InsufficientBalance",
      "type": "error"
    },
    {
      "inputs": [
        {
          "internalType": "address",
          "name": "approver",
          "type": "address"
        }
      ],
      "name": "ERC20InvalidApprover",
      "type": "error"
    },
    {
      "inputs": [
        {
          "internalType": "address",
          "name": "receiver",
          "type": "address"
        }
      ],
      "name": "ERC20InvalidReceiver",
      "type": "error"
    },
    {
      "inputs": [
        {
          "internalType": "address",
          "name": "sender",
          "type": "address"
        }
      ],
      "name": "ERC20InvalidSender",
      "type": "error"
    },
    {
      "inputs": [
        {
          "internalType": "address",
          "name": "spender",
          "type": "address"
        }
      ],
      "name": "ERC20InvalidSpender",
      "type": "error"
    },
    {
      "inputs": [
        {
          "internalType": "address",
          "name": "owner",
          "type": "address"
        }
      ],
      "name": "OwnableInvalidOwner",
      "type": "error"
    },
    {
      "inputs": [
        {
          "internalType": "address",
          "name": "account",
          "type": "address"
        }
      ],
      "name": "OwnableUnauthorizedAccount",
      "type": "error"
    },
    {
      "inputs": [],
      "name": "ReentrancyGuardReentrantCall",
      "type": "error"
    },
    {
      "anonymous": false,
      "inputs": [
        {
          "indexed": true,
          "internalType": "address",
          "name": "owner",
          "type": "address"
        },
        {
          "indexed": true,
          "internalType": "address",
          "name": "spender",
          "type": "address"
        },
        {
          "indexed": false,
          "internalType": "uint256",
          "name": "value",
          "type": "uint256"
        }
      ],
      "name": "Approval",
      "type": "event"
    },
    {
      "anonymous": false,
      "inputs": [
        {
          "indexed": true,
          "internalType": "address",
          "name": "user",
          "type": "address"
        },
        {
          "indexed": false,
          "internalType": "uint256",
          "name": "amount",
          "type": "uint256"
        },
        {
          "indexed": false,
          "internalType": "uint256",
          "name": "timestamp",
          "type": "uint256"
        }
      ],
      "name": "FaucetClaimed",
      "type": "event"
    },
    {
      "anonymous": false,
      "inputs": [
        {
          "indexed": true,
          "internalType": "address",
          "name": "previousOwner",
          "type": "address"
        },
        {
          "indexed": true,
          "internalType": "address",
          "name": "newOwner",
          "type": "address"
        }
      ],
      "name": "OwnershipTransferred",
      "type": "event"
    },
    {
      "anonymous": false,
      "inputs": [
        {
          "indexed": true,
          "internalType": "address",
          "name": "from",
          "type": "address"
        },
        {
          "indexed": true,
          "internalType": "address",
          "name": "to",
          "type": "address"
        },
        {
          "indexed": false,
          "internalType": "uint256",
          "name": "value",
          "type": "uint256"
        }
      ],
      "name": "Transfer",
      "type": "event"
    },
    {
      "inputs": [],
      "name": "COOLDOWN",
      "outputs": [
        {
          "internalType": "uint256",
          "name": "",
          "type": "uint256"
        }
      ],
      "stateMutability": "view",
      "type": "function"
    },
    {
      "inputs": [],
      "name": "FAUCET_AMOUNT",
      "outputs": [
        {
          "internalType": "uint256",
          "name": "",
          "type": "uint256"
        }
      ],
      "stateMutability": "view",
      "type": "function"
    },
    {
      "inputs": [],
      "name": "MAX_SUPPLY",
      "outputs": [
        {
          "internalType": "uint256",
          "name": "",
          "type": "uint256"
        }
      ],
      "stateMutability": "view",
      "type": "function"
    },
    {
      "inputs": [
        {
          "internalType": "address",
          "name": "owner",
          "type": "address"
        },
        {
          "internalType": "address",
          "name": "spender",
          "type": "address"
        }
      ],
      "name": "allowance",
      "outputs": [
        {
          "internalType": "uint256",
          "name": "",
          "type": "uint256"
        }
      ],
      "stateMutability": "view",
      "type": "function"
    },
    {
      "inputs": [
        {
          "internalType": "address",
          "name": "spender",
          "type": "address"
        },
        {
          "internalType": "uint256",
          "name": "value",
          "type": "uint256"
        }
      ],
      "name": "approve",
      "outputs": [
        {
          "internalType": "bool",
          "name": "",
          "type": "bool"
        }
      ],
      "stateMutability": "nonpayable",
      "type": "function"
    },
    {
      "inputs": [
        {
          "internalType": "address",
          "name": "account",
          "type": "address"
        }
      ],
      "name": "balanceOf",
      "outputs": [
        {
          "internalType": "uint256",
          "name": "",
          "type": "uint256"
        }
      ],
      "stateMutability": "view",
      "type": "function"
    },
    {
      "inputs": [],
      "name": "claimFaucet",
      "outputs": [],
      "stateMutability": "nonpayable",
      "type": "function"
    },
    {
      "inputs": [],
      "name": "decimals",
      "outputs": [
        {
          "internalType": "uint8",
          "name": "",
          "type": "uint8"
        }
      ],
      "stateMutability": "view",
      "type": "function"
    },
    {
      "inputs": [
        {
          "internalType": "address",
          "name": "user",
          "type": "address"
        }
      ],
      "name": "getNextClaimTime",
      "outputs": [
        {
          "internalType": "uint256",
          "name": "",
          "type": "uint256"
        }
      ],
      "stateMutability": "view",
      "type": "function"
    },
    {
      "inputs": [
        {
          "internalType": "address",
          "name": "",
          "type": "address"
        }
      ],
      "name": "lastFaucetClaim",
      "outputs": [
        {
          "internalType": "uint256",
          "name": "",
          "type": "uint256"
        }
      ],
      "stateMutability": "view",
      "type": "function"
    },
    {
      "inputs": [
        {
          "internalType": "address",
          "name": "to",
          "type": "address"
        },
        {
          "internalType": "uint256",
          "name": "amount",
          "type": "uint256"
        }
      ],
      "name": "mintTo",
      "outputs": [],
      "stateMutability": "nonpayable",
      "type": "function"
    },
    {
      "inputs": [],
      "name": "name",
      "outputs": [
        {
          "internalType": "string",
          "name": "",
          "type": "string"
        }
      ],
      "stateMutability": "view",
      "type": "function"
    },
    {
      "inputs": [],
      "name": "owner",
      "outputs": [
        {
          "internalType": "address",
          "name": "",
          "type": "address"
        }
      ],
      "stateMutability": "view",
      "type": "function"
    },
    {
      "inputs": [
        {
          "internalType": "uint256",
          "name": "amount",
          "type": "uint256"
        }
      ],
      "name": "refillFaucet",
      "outputs": [],
      "stateMutability": "nonpayable",
      "type": "function"
    },
    {
      "inputs": [],
      "name": "renounceOwnership",
      "outputs": [],
      "stateMutability": "nonpayable",
      "type": "function"
    },
    {
      "inputs": [],
      "name": "symbol",
      "outputs": [
        {
          "internalType": "string",
          "name": "",
          "type": "string"
        }
      ],
      "stateMutability": "view",
      "type": "function"
    },
    {
      "inputs": [],
      "name": "totalSupply",
      "outputs": [
        {
          "internalType": "uint256",
          "name": "",
          "type": "uint256"
        }
      ],
      "stateMutability": "view",
      "type": "function"
    },
    {
      "inputs": [
        {
          "internalType": "address",
          "name": "to",
          "type": "address"
        },
        {
          "internalType": "uint256",
          "name": "value",
          "type": "uint256"
        }
      ],
      "name": "transfer",
      "outputs": [
        {
          "internalType": "bool",
          "name": "",
          "type": "bool"
        }
      ],
      "stateMutability": "nonpayable",
      "type": "function"
    },
    {
      "inputs": [
        {
          "internalType": "address",
          "name": "from",
          "type": "address"
        },
        {
          "internalType": "address",
          "name": "to",
          "type": "address"
        },
        {
          "internalType": "uint256",
          "name": "value",
          "type": "uint256"
        }
      ],
      "name": "transferFrom",
      "outputs": [
        {
          "internalType": "bool",
          "name": "",
          "type": "bool"
        }
      ],
      "stateMutability": "nonpayable",
      "type": "function"
    },
    {
      "inputs": [
        {
          "internalType": "address",
          "name": "newOwner",
          "type": "address"
        }
      ],
      "name": "transferOwnership",
      "outputs": [],
      "stateMutability": "nonpayable",
      "type": "function"
    }
  ],
  "bytecode": "0x60806040523480156200001157600080fd5b5060405162001118380380620011188339810160408190526200003491620002d2565b806040518060400160405280600b81526020016a2934b0b637902a37b5b2b760a91b81525060405180604001604052806003815260200162524c4f60e81b8152508160039081620000869190620003ab565b506004620000958282620003ab565b5050506001600160a01b038116620000c857604051631e4fbdf760e01b8152600060048201526024015b60405180910390fd5b620000d3816200010f565b506001600655620000f1816b02e87669c308736a0400000062000161565b62000108306a52b7d2dcc80cd2e400000062000161565b506200049f565b600580546001600160a01b038381166001600160a01b0319831681179093556040519116919082907f8be0079c531659141344cd1fd0a4f28419497f9722a3daafe3b4186f6b6457e090600090a35050565b6001600160a01b0382166200018d5760405163ec442f0560e01b815260006004820152602401620000bf565b6200019b600083836200019f565b5050565b6001600160a01b038316620001ce578060026000828254620001c2919062000477565b90915550620002429050565b6001600160a01b03831660009081526020819052604090205481811015620002235760405163391434e360e21b81526001600160a01b03851660048201526024810182905260448101839052606401620000bf565b6001600160a01b03841660009081526020819052604090209082900390555b6001600160a01b03821662000260576002805482900390556200027f565b6001600160a01b03821660009081526020819052604090208054820190555b816001600160a01b0316836001600160a01b03167fddf252ad1be2c89b69c2b068fc378daa952ba7f163c4a11628f55a4df523b3ef83604051620002c591815260200190565b60405180910390a3505050565b600060208284031215620002e557600080fd5b81516001600160a01b0381168114620002fd57600080fd5b9392505050565b634e487b7160e01b600052604160045260246000fd5b600181811c908216806200032f57607f821691505b6020821081036200035057634e487b7160e01b600052602260045260246000fd5b50919050565b601f821115620003a6576000816000526020600020601f850160051c81016020861015620003815750805b601f850160051c820191505b81811015620003a2578281556001016200038d565b5050505b505050565b81516001600160401b03811115620003c757620003c762000304565b620003df81620003d884546200031a565b8462000356565b602080601f831160018114620004175760008415620003fe5750858301515b600019600386901b1c1916600185901b178555620003a2565b600085815260208120601f198616915b82811015620004485788860151825594840194600190910190840162000427565b5085821015620004675787850151600019600388901b60f8161c191681555b5050505050600190811b01905550565b808201808211156200049957634e487b7160e01b600052601160045260246000fd5b92915050565b610c6980620004af6000396000f3fe608060405234801561001057600080fd5b506004361061012c5760003560e01c806376697640116100ad578063a2724a4d11610071578063a2724a4d1461026d578063a6e340c614610277578063a9059cbb1461028a578063dd62ed3e1461029d578063f2fde38b146102d657600080fd5b806376697640146102075780638a877205146102175780638da5cb5b1461023757806393c30c0f1461025257806395d89b411461026557600080fd5b806332cb6b0c116100f457806332cb6b0c146101a6578063449a52f8146101b95780634fe15335146101ce57806370a08231146101d6578063715018a6146101ff57600080fd5b806306fdde0314610131578063095ea7b31461014f57806318160ddd1461017257806323b872dd14610184578063313ce56714610197575b600080fd5b6101396102e9565b6040516101469190610aa0565b60405180910390f35b61016261015d366004610b0b565b61037b565b6040519015158152602001610146565b6002545b604051908152602001610146565b610162610192366004610b35565b610395565b60405160128152602001610146565b6101766b033b2e3c9fd0803ce800000081565b6101cc6101c7366004610b0b565b6103b9565b005b6101cc61043d565b6101766101e4366004610b71565b6001600160a01b031660009081526020819052604090205490565b6101cc610584565b610176683635c9adc5dea0000081565b610176610225366004610b71565b60076020526000908152604090205481565b6005546040516001600160a01b039091168152602001610146565b610176610260366004610b71565b610596565b6101396105fd565b6101766201518081565b6101cc610285366004610b8c565b61060c565b610162610298366004610b0b565b61068a565b6101766102ab366004610ba5565b6001600160a01b03918216600090815260016020908152604080832093909416825291909152205490565b6101cc6102e4366004610b71565b610698565b6060600380546102f890610bd8565b80601f016020809104026020016040519081016040528092919081815260200182805461032490610bd8565b80156103715780601f1061034657610100808354040283529160200191610371565b820191906000526020600020905b81548152906001019060200180831161035457829003601f168201915b5050505050905090565b6000336103898185856106d3565b60019150505b92915050565b6000336103a38582856106e5565b6103ae858585610763565b506001949350505050565b6103c16107c2565b6b033b2e3c9fd0803ce8000000816103d860025490565b6103e29190610c12565b111561042f5760405162461bcd60e51b8152602060048201526017602482015276524c4f3a2045786365656473206d617820737570706c7960481b60448201526064015b60405180910390fd5b61043982826107ef565b5050565b610445610825565b33600090815260076020526040902054610463906201518090610c12565b4210156104b25760405162461bcd60e51b815260206004820152601a60248201527f524c4f3a20436f6f6c646f776e206e6f742066696e69736865640000000000006044820152606401610426565b30600090815260208190526040902054683635c9adc5dea00000111561050e5760405162461bcd60e51b8152602060048201526011602482015270524c4f3a2046617563657420656d70747960781b6044820152606401610426565b336000818152600760205260409020429055610535903090683635c9adc5dea00000610763565b60408051683635c9adc5dea00000815242602082015233917fa19a7d2b5bf6a987a66e0eac8a6eb2dbd34ae6a43285849af788b224268ec022910160405180910390a26105826001600655565b565b61058c6107c2565b610582600061084f565b6001600160a01b03811660009081526007602052604081205481036105bd57506000919050565b6001600160a01b0382166000908152600760205260408120546105e4906201518090610c12565b90504281116105f45760006105f6565b805b9392505050565b6060600480546102f890610bd8565b6106146107c2565b6b033b2e3c9fd0803ce80000008161062b60025490565b6106359190610c12565b111561067d5760405162461bcd60e51b8152602060048201526017602482015276524c4f3a2045786365656473206d617820737570706c7960481b6044820152606401610426565b61068730826107ef565b50565b600033610389818585610763565b6106a06107c2565b6001600160a01b0381166106ca57604051631e4fbdf760e01b815260006004820152602401610426565b6106878161084f565b6106e083838360016108a1565b505050565b6001600160a01b03838116600090815260016020908152604080832093861683529290522054600019811461075d578181101561074e57604051637dc7a0d960e11b81526001600160a01b03841660048201526024810182905260448101839052606401610426565b61075d848484840360006108a1565b50505050565b6001600160a01b03831661078d57604051634b637e8f60e11b815260006004820152602401610426565b6001600160a01b0382166107b75760405163ec442f0560e01b815260006004820152602401610426565b6106e0838383610976565b6005546001600160a01b031633146105825760405163118cdaa760e01b8152336004820152602401610426565b6001600160a01b0382166108195760405163ec442f0560e01b815260006004820152602401610426565b61043960008383610976565b60026006540361084857604051633ee5aeb560e01b815260040160405180910390fd5b6002600655565b600580546001600160a01b038381166001600160a01b0319831681179093556040519116919082907f8be0079c531659141344cd1fd0a4f28419497f9722a3daafe3b4186f6b6457e090600090a35050565b6001600160a01b0384166108cb5760405163e602df0560e01b815260006004820152602401610426565b6001600160a01b0383166108f557604051634a1406b160e11b815260006004820152602401610426565b6001600160a01b038085166000908152600160209081526040808320938716835292905220829055801561075d57826001600160a01b0316846001600160a01b03167f8c5be1e5ebec7d5bd14f71427d1e84f3dd0314c0f7b2291e5b200ac8c7c3b9258460405161096891815260200190565b60405180910390a350505050565b6001600160a01b0383166109a15780600260008282546109969190610c12565b90915550610a139050565b6001600160a01b038316600090815260208190526040902054818110156109f45760405163391434e360e21b81526001600160a01b03851660048201526024810182905260448101839052606401610426565b6001600160a01b03841660009081526020819052604090209082900390555b6001600160a01b038216610a2f57600280548290039055610a4e565b6001600160a01b03821660009081526020819052604090208054820190555b816001600160a01b0316836001600160a01b03167fddf252ad1be2c89b69c2b068fc378daa952ba7f163c4a11628f55a4df523b3ef83604051610a9391815260200190565b60405180910390a3505050565b60006020808352835180602085015260005b81811015610ace57858101830151858201604001528201610ab2565b506000604082860101526040601f19601f8301168501019250505092915050565b80356001600160a01b0381168114610b0657600080fd5b919050565b60008060408385031215610b1e57600080fd5b610b2783610aef565b946020939093013593505050565b600080600060608486031215610b4a57600080fd5b610b5384610aef565b9250610b6160208501610aef565b9150604084013590509250925092565b600060208284031215610b8357600080fd5b6105f682610aef565b600060208284031215610b9e57600080fd5b5035919050565b60008060408385031215610bb857600080fd5b610bc183610aef565b9150610bcf60208401610aef565b90509250929050565b600181811c90821680610bec57607f821691505b602082108103610c0c57634e487b7160e01b600052602260045260246000fd5b50919050565b8082018082111561038f57634e487b7160e01b600052601160045260246000fdfea2646970667358221220b6e3635f2ab36ed4064ff1032ff6a1a8f1a27c5743bfa1a396157675a84a2f1864736f6c63430008180033",
  "linkReferences": {},
  "deployedLinkReferences": {}
}