{
  "_format": "hh-sol-artifact-1",
  "contractName": "Staking",
  "sourceName": "contracts/Staking.sol",
  "abi": [
    {
      "inputs": [
        {
          "internalType": "address",
          "name": "_rewardToken",
          "type": "address"
        },
        {
          "internalType": "address",
          "name": "initialOwner",
          "type": "address"
        }
      ],
      "stateMutability": "nonpayable",
      "type": "constructor"
    },
    {
      "inputs": [
        {
          "internalType": "address",
          "name": "target",
          "type": "address"
        }
      ],
      "name": "AddressEmptyCode",
      "type": "error"
    },
    {
      "inputs": [
        {
          "internalType": "address",
          "name": "account",
          "type": "address"
        }
      ],
      "name": "AddressInsufficientBalance",
      "type": "error"
    },
    {
      "inputs": [],
      "name": "FailedInnerCall",
      "type": "error"
    },
    {
      "inputs": [
        {
          "internalType": "address",
          "name": "owner",
          "type": "address"
        }
      ],
      "name": "OwnableInvalidOwner",
      "type": "error"
    },
    {
      "inputs": [
        {
          "internalType": "address",
          "name": "account",
          "type": "address"
        }
      ],
      "name": "OwnableUnauthorizedAccount",
      "type": "error"
    },
    {
      "inputs": [],
      "name": "ReentrancyGuardReentrantCall",
      "type": "error"
    },
    {
      "inputs": [
        {
          "internalType": "address",
          "name": "token",
          "type": "address"
        }
      ],
      "name": "SafeERC20FailedOperation",
      "type": "error"
    },
    {
      "anonymous": false,
      "inputs": [
        {
          "indexed": true,
          "internalType": "address",
          "name": "previousOwner",
          "type": "address"
        },
        {
          "indexed": true,
          "internalType": "address",
          "name": "newOwner",
          "type": "address"
        }
      ],
      "name": "OwnershipTransferred",
      "type": "event"
    },
    {
      "anonymous": false,
      "inputs": [
        {
          "indexed": true,
          "internalType": "uint256",
          "name": "pid",
          "type": "uint256"
        },
        {
          "indexed": false,
          "internalType": "address",
          "name": "token",
          "type": "address"
        },
        {
          "indexed": false,
          "internalType": "uint256",
          "name": "aprBps",
          "type": "uint256"
        }
      ],
      "name": "PoolAdded",
      "type": "event"
    },
    {
      "anonymous": false,
      "inputs": [
        {
          "indexed": true,
          "internalType": "address",
          "name": "user",
          "type": "address"
        },
        {
          "indexed": true,
          "internalType": "uint256",
          "name": "pid",
          "type": "uint256"
        },
        {
          "indexed": false,
          "internalType": "uint256",
          "name": "reward",
          "type": "uint256"
        }
      ],
      "name": "RewardClaimed",
      "type": "event"
    },
    {
      "anonymous": false,
      "inputs": [
        {
          "indexed": true,
          "internalType": "address",
          "name": "user",
          "type": "address"
        },
        {
          "indexed": true,
          "internalType": "uint256",
          "name": "pid",
          "type": "uint256"
        },
        {
          "indexed": false,
          "internalType": "uint256",
          "name": "amount",
          "type": "uint256"
        }
      ],
      "name": "Staked",
      "type": "event"
    },
    {
      "anonymous": false,
      "inputs": [
        {
          "indexed": true,
          "internalType": "address",
          "name": "user",
          "type": "address"
        },
        {
          "indexed": true,
          "internalType": "uint256",
          "name": "pid",
          "type": "uint256"
        },
        {
          "indexed": false,
          "internalType": "uint256",
          "name": "amount",
          "type": "uint256"
        }
      ],
      "name": "Withdrawn",
      "type": "event"
    },
    {
      "inputs": [
        {
          "internalType": "address",
          "name": "_token",
          "type": "address"
        },
        {
          "internalType": "uint256",
          "name": "_aprBps",
          "type": "uint256"
        }
      ],
      "name": "addPool",
      "outputs": [],
      "stateMutability": "nonpayable",
      "type": "function"
    },
    {
      "inputs": [],
      "name": "claimAllRewards",
      "outputs": [],
      "stateMutability": "nonpayable",
      "type": "function"
    },
    {
      "inputs": [
        {
          "internalType": "uint256",
          "name": "pid",
          "type": "uint256"
        }
      ],
      "name": "claimReward",
      "outputs": [],
      "stateMutability": "nonpayable",
      "type": "function"
    },
    {
      "inputs": [
        {
          "internalType": "uint256",
          "name": "amount",
          "type": "uint256"
        }
      ],
      "name": "depositRewards",
      "outputs": [],
      "stateMutability": "nonpayable",
      "type": "function"
    },
    {
      "inputs": [],
      "name": "owner",
      "outputs": [
        {
          "internalType": "address",
          "name": "",
          "type": "address"
        }
      ],
      "stateMutability": "view",
      "type": "function"
    },
    {
      "inputs": [
        {
          "internalType": "uint256",
          "name": "pid",
          "type": "uint256"
        },
        {
          "internalType": "address",
          "name": "_user",
          "type": "address"
        }
      ],
      "name": "pendingReward",
      "outputs": [
        {
          "internalType": "uint256",
          "name": "",
          "type": "uint256"
        }
      ],
      "stateMutability": "view",
      "type": "function"
    },
    {
      "inputs": [],
      "name": "poolLength",
      "outputs": [
        {
          "internalType": "uint256",
          "name": "",
          "type": "uint256"
        }
      ],
      "stateMutability": "view",
      "type": "function"
    },
    {
      "inputs": [
        {
          "internalType": "uint256",
          "name": "",
          "type": "uint256"
        }
      ],
      "name": "pools",
      "outputs": [
        {
          "internalType": "contract IERC20",
          "name": "token",
          "type": "address"
        },
        {
          "internalType": "uint256",
          "name": "aprBps",
          "type": "uint256"
        },
        {
          "internalType": "uint256",
          "name": "totalStaked",
          "type": "uint256"
        },
        {
          "internalType": "bool",
          "name": "active",
          "type": "bool"
        }
      ],
      "stateMutability": "view",
      "type": "function"
    },
    {
      "inputs": [],
      "name": "renounceOwnership",
      "outputs": [],
      "stateMutability": "nonpayable",
      "type": "function"
    },
    {
      "inputs": [],
      "name": "rewardToken",
      "outputs": [
        {
          "internalType": "contract IERC20",
          "name": "",
          "type": "address"
        }
      ],
      "stateMutability": "view",
      "type": "function"
    },
    {
      "inputs": [
        {
          "internalType": "uint256",
          "name": "pid",
          "type": "uint256"
        },
        {
          "internalType": "uint256",
          "name": "_aprBps",
          "type": "uint256"
        }
      ],
      "name": "setPoolAPR",
      "outputs": [],
      "stateMutability": "nonpayable",
      "type": "function"
    },
    {
      "inputs": [
        {
          "internalType": "uint256",
          "name": "pid",
          "type": "uint256"
        },
        {
          "internalType": "uint256",
          "name": "amount",
          "type": "uint256"
        }
      ],
      "name": "stake",
      "outputs": [],
      "stateMutability": "nonpayable",
      "type": "function"
    },
    {
      "inputs": [
        {
          "internalType": "address",
          "name": "newOwner",
          "type": "address"
        }
      ],
      "name": "transferOwnership",
      "outputs": [],
      "stateMutability": "nonpayable",
      "type": "function"
    },
    {
      "inputs": [
        {
          "internalType": "uint256",
          "name": "",
          "type": "uint256"
        },
        {
          "internalType": "address",
          "name": "",
          "type": "address"
        }
      ],
      "name": "userInfo",
      "outputs": [
        {
          "internalType": "uint256",
          "name": "amount",
          "type": "uint256"
        },
        {
          "internalType": "uint256",
          "name": "rewardDebt",
          "type": "uint256"
        },
        {
          "internalType": "uint256",
          "name": "lastUpdateTime",
          "type": "uint256"
        }
      ],
      "stateMutability": "view",
      "type": "function"
    },
    {
      "inputs": [
        {
          "internalType": "uint256",
          "name": "pid",
          "type": "uint256"
        },
        {
          "internalType": "uint256",
          "name": "amount",
          "type": "uint256"
        }
      ],
      "name": "withdraw",
      "outputs": [],
      "stateMutability": "nonpayable",
      "type": "function"
    }
  ],
  "bytecode": "0x60a060405234801561001057600080fd5b5060405161117838038061117883398101604081905261002f916100ea565b806001600160a01b03811661005e57604051631e4fbdf760e01b81526000600482015260240160405180910390fd5b6100678161007e565b5050600180556001600160a01b031660805261011d565b600080546001600160a01b038381166001600160a01b0319831681178455604051919092169283917f8be0079c531659141344cd1fd0a4f28419497f9722a3daafe3b4186f6b6457e09190a35050565b80516001600160a01b03811681146100e557600080fd5b919050565b600080604083850312156100fd57600080fd5b610106836100ce565b9150610114602084016100ce565b90509250929050565b60805161102b61014d60003960008181610279015281816103aa015281816108ba0152610a9a015261102b6000f3fe608060405234801561001057600080fd5b50600436106100f55760003560e01c80638bdf67f211610097578063ac4afa3811610066578063ac4afa381461020f578063ae169a501461024e578063f2fde38b14610261578063f7c618c11461027457600080fd5b80638bdf67f21461016f5780638da5cb5b1461018257806393f1a40b146101a757806398969e82146101fc57600080fd5b806343fb9263116100d357806343fb92631461012e578063441a3e7014610141578063715018a6146101545780637b0472f01461015c57600080fd5b8063081e3eda146100fa5780630b83a7271461011157806332a9caba1461011b575b600080fd5b6002545b6040519081526020015b60405180910390f35b61011961029b565b005b610119610129366004610e3e565b6103dd565b61011961013c366004610e68565b610532565b61011961014f366004610e68565b610567565b6101196106c5565b61011961016a366004610e68565b6106d7565b61011961017d366004610e8a565b6108a5565b6000546001600160a01b03165b6040516001600160a01b039091168152602001610108565b6101e16101b5366004610ea3565b600360209081526000928352604080842090915290825290208054600182015460029092015490919083565b60408051938452602084019290925290820152606001610108565b6100fe61020a366004610ea3565b6108e5565b61022261021d366004610e8a565b6109a3565b604080516001600160a01b03909516855260208501939093529183015215156060820152608001610108565b61011961025c366004610e8a565b6109ea565b61011961026f366004610ecf565b610b03565b61018f7f000000000000000000000000000000000000000000000000000000000000000081565b6102a3610b3e565b6000805b600254811015610347576000818152600360209081526040808320338085529252822091906102d79084906108e5565b9050801561033d57600060018301554260028301556102f68185610f00565b935082336001600160a01b03167ff01da32686223933d8a18a391060918c7f11a3648639edd87ae013e2e27317438360405161033491815260200190565b60405180910390a35b50506001016102a7565b506000811161039d5760405162461bcd60e51b815260206004820152601c60248201527f5374616b696e673a204e6f207265776172647320746f20636c61696d0000000060448201526064015b60405180910390fd5b6103d16001600160a01b037f0000000000000000000000000000000000000000000000000000000000000000163383610b68565b506103db60018055565b565b6103e5610bcc565b604080516080810182526001600160a01b0384811682526020820184815260009383018481526001606085018181526002805480840182559781905295517f405787fa12a823e0f2b7631cc41b3ba8828b3321ca811111fa75cd3aa3bb5ace600490980297880180546001600160a01b031916919096161790945591517f405787fa12a823e0f2b7631cc41b3ba8828b3321ca811111fa75cd3aa3bb5acf860155517f405787fa12a823e0f2b7631cc41b3ba8828b3321ca811111fa75cd3aa3bb5ad085015590517f405787fa12a823e0f2b7631cc41b3ba8828b3321ca811111fa75cd3aa3bb5ad1909301805460ff191693151593909317909255546104ec9190610f13565b604080516001600160a01b0385168152602081018490527f6c5d0ef1d0199b6de41ecbce95f59643be4d723ca363faf92d756e61e82fb13e910160405180910390a25050565b61053a610bcc565b806002838154811061054e5761054e610f26565b9060005260206000209060040201600101819055505050565b61056f610b3e565b60025482106105905760405162461bcd60e51b815260040161039490610f3c565b6000828152600360209081526040808320338452909152902080548211156105fa5760405162461bcd60e51b815260206004820152601c60248201527f5374616b696e673a20496e73756666696369656e74207374616b6564000000006044820152606401610394565b60006002848154811061060f5761060f610f26565b9060005260206000209060040201905061062984336108e5565b6001830155426002830155815483908390600090610648908490610f13565b92505081905550828160020160008282546106639190610f13565b9091555050805461067e906001600160a01b03163385610b68565b604051838152849033907f92ccf450a286a957af52509bc1c9939d1a6a481783e142e41e2499f0bb66ebc6906020015b60405180910390a350506106c160018055565b5050565b6106cd610bcc565b6103db6000610bf9565b6106df610b3e565b60025482106107005760405162461bcd60e51b815260040161039490610f3c565b6002828154811061071357610713610f26565b600091825260209091206003600490920201015460ff166107765760405162461bcd60e51b815260206004820152601860248201527f5374616b696e673a20506f6f6c206e6f742061637469766500000000000000006044820152606401610394565b600081116107c65760405162461bcd60e51b815260206004820152601b60248201527f5374616b696e673a20416d6f756e74206d757374206265203e203000000000006044820152606401610394565b6000600283815481106107db576107db610f26565b6000918252602080832086845260038252604080852033865290925292208054600490920290920192501561081d57600061081685336108e5565b6001830155505b8154610834906001600160a01b0316333086610c49565b828160000160008282546108489190610f00565b925050819055504281600201819055508282600201600082825461086c9190610f00565b9091555050604051838152849033907f1449c6dd7851abc30abf37f57715f492010519147cc2652fbc38202c18a6ee90906020016106ae565b6108ad610bcc565b6108e26001600160a01b037f000000000000000000000000000000000000000000000000000000000000000016333084610c49565b50565b60008281526003602090815260408083206001600160a01b038516845290915281208054820361091a5760010154905061099d565b60006002858154811061092f5761092f610f26565b9060005260206000209060040201905060008260020154426109519190610f13565b9050600064496cebb80082846001015486600001546109709190610f6b565b61097a9190610f6b565b6109849190610f82565b90508084600101546109969190610f00565b9450505050505b92915050565b600281815481106109b357600080fd5b600091825260209091206004909102018054600182015460028301546003909301546001600160a01b039092169350919060ff1684565b6109f2610b3e565b6002548110610a135760405162461bcd60e51b815260040161039490610f3c565b600081815260036020908152604080832033808552925282209190610a399084906108e5565b905060008111610a805760405162461bcd60e51b815260206004820152601260248201527114dd185ada5b99ce88139bc81c995dd85c9960721b6044820152606401610394565b60006001830155426002830155610ac16001600160a01b037f0000000000000000000000000000000000000000000000000000000000000000163383610b68565b604051818152839033907ff01da32686223933d8a18a391060918c7f11a3648639edd87ae013e2e27317439060200160405180910390a350506108e260018055565b610b0b610bcc565b6001600160a01b038116610b3557604051631e4fbdf760e01b815260006004820152602401610394565b6108e281610bf9565b600260015403610b6157604051633ee5aeb560e01b815260040160405180910390fd5b6002600155565b6040516001600160a01b03838116602483015260448201839052610bc791859182169063a9059cbb906064015b604051602081830303815290604052915060e01b6020820180516001600160e01b038381831617835250505050610c88565b505050565b6000546001600160a01b031633146103db5760405163118cdaa760e01b8152336004820152602401610394565b600080546001600160a01b038381166001600160a01b0319831681178455604051919092169283917f8be0079c531659141344cd1fd0a4f28419497f9722a3daafe3b4186f6b6457e09190a35050565b6040516001600160a01b038481166024830152838116604483015260648201839052610c829186918216906323b872dd90608401610b95565b50505050565b6000610c9d6001600160a01b03841683610ceb565b90508051600014158015610cc2575080806020019051810190610cc09190610fa4565b155b15610bc757604051635274afe760e01b81526001600160a01b0384166004820152602401610394565b6060610cf983836000610d00565b9392505050565b606081471015610d255760405163cd78605960e01b8152306004820152602401610394565b600080856001600160a01b03168486604051610d419190610fc6565b60006040518083038185875af1925050503d8060008114610d7e576040519150601f19603f3d011682016040523d82523d6000602084013e610d83565b606091505b5091509150610d93868383610d9d565b9695505050505050565b606082610db257610dad82610df9565b610cf9565b8151158015610dc957506001600160a01b0384163b155b15610df257604051639996b31560e01b81526001600160a01b0385166004820152602401610394565b5080610cf9565b805115610e095780518082602001fd5b604051630a12f52160e11b815260040160405180910390fd5b80356001600160a01b0381168114610e3957600080fd5b919050565b60008060408385031215610e5157600080fd5b610e5a83610e22565b946020939093013593505050565b60008060408385031215610e7b57600080fd5b50508035926020909101359150565b600060208284031215610e9c57600080fd5b5035919050565b60008060408385031215610eb657600080fd5b82359150610ec660208401610e22565b90509250929050565b600060208284031215610ee157600080fd5b610cf982610e22565b634e487b7160e01b600052601160045260246000fd5b8082018082111561099d5761099d610eea565b8181038181111561099d5761099d610eea565b634e487b7160e01b600052603260045260246000fd5b60208082526015908201527414dd185ada5b99ce88125b9d985b1a59081c1bdbdb605a1b604082015260600190565b808202811582820484141761099d5761099d610eea565b600082610f9f57634e487b7160e01b600052601260045260246000fd5b500490565b600060208284031215610fb657600080fd5b81518015158114610cf957600080fd5b6000825160005b81811015610fe75760208186018101518583015201610fcd565b50600092019182525091905056fea26469706673582212201e4e2b24bfd4b8fd1f1a084be4ead19293d15b7f2f195ae3e51e0e559d8799bd64736f6c63430008180033",
  "linkReferences": {},
  "deployedLinkReferences": {}
}