{
  "_format": "hh-sol-artifact-1",
  "contractName": "Swap",
  "sourceName": "contracts/Swap.sol",
  "abi": [
    {
      "inputs": [
        {
          "internalType": "address",
          "name": "initialOwner",
          "type": "address"
        }
      ],
      "stateMutability": "nonpayable",
      "type": "constructor"
    },
    {
      "inputs": [
        {
          "internalType": "address",
          "name": "target",
          "type": "address"
        }
      ],
      "name": "AddressEmptyCode",
      "type": "error"
    },
    {
      "inputs": [
        {
          "internalType": "address",
          "name": "account",
          "type": "address"
        }
      ],
      "name": "AddressInsufficientBalance",
      "type": "error"
    },
    {
      "inputs": [],
      "name": "FailedInnerCall",
      "type": "error"
    },
    {
      "inputs": [
        {
          "internalType": "address",
          "name": "owner",
          "type": "address"
        }
      ],
      "name": "OwnableInvalidOwner",
      "type": "error"
    },
    {
      "inputs": [
        {
          "internalType": "address",
          "name": "account",
          "type": "address"
        }
      ],
      "name": "OwnableUnauthorizedAccount",
      "type": "error"
    },
    {
      "inputs": [],
      "name": "ReentrancyGuardReentrantCall",
      "type": "error"
    },
    {
      "inputs": [
        {
          "internalType": "address",
          "name": "token",
          "type": "address"
        }
      ],
      "name": "SafeERC20FailedOperation",
      "type": "error"
    },
    {
      "anonymous": false,
      "inputs": [
        {
          "indexed": true,
          "internalType": "address",
          "name": "token",
          "type": "address"
        },
        {
          "indexed": false,
          "internalType": "uint256",
          "name": "amount",
          "type": "uint256"
        }
      ],
      "name": "LiquidityAdded",
      "type": "event"
    },
    {
      "anonymous": false,
      "inputs": [
        {
          "indexed": true,
          "internalType": "address",
          "name": "token",
          "type": "address"
        },
        {
          "indexed": false,
          "internalType": "uint256",
          "name": "amount",
          "type": "uint256"
        }
      ],
      "name": "LiquidityRemoved",
      "type": "event"
    },
    {
      "anonymous": false,
      "inputs": [
        {
          "indexed": true,
          "internalType": "address",
          "name": "previousOwner",
          "type": "address"
        },
        {
          "indexed": true,
          "internalType": "address",
          "name": "newOwner",
          "type": "address"
        }
      ],
      "name": "OwnershipTransferred",
      "type": "event"
    },
    {
      "anonymous": false,
      "inputs": [
        {
          "indexed": true,
          "internalType": "address",
          "name": "user",
          "type": "address"
        },
        {
          "indexed": true,
          "internalType": "address",
          "name": "token",
          "type": "address"
        },
        {
          "indexed": false,
          "internalType": "uint256",
          "name": "ethIn",
          "type": "uint256"
        },
        {
          "indexed": false,
          "internalType": "uint256",
          "name": "tokenOut",
          "type": "uint256"
        }
      ],
      "name": "SwappedETHToToken",
      "type": "event"
    },
    {
      "anonymous": false,
      "inputs": [
        {
          "indexed": true,
          "internalType": "address",
          "name": "user",
          "type": "address"
        },
        {
          "indexed": true,
          "internalType": "address",
          "name": "token",
          "type": "address"
        },
        {
          "indexed": false,
          "internalType": "uint256",
          "name": "tokenIn",
          "type": "uint256"
        },
        {
          "indexed": false,
          "internalType": "uint256",
          "name": "ethOut",
          "type": "uint256"
        }
      ],
      "name": "SwappedTokenToETH",
      "type": "event"
    },
    {
      "anonymous": false,
      "inputs": [
        {
          "indexed": true,
          "internalType": "address",
          "name": "user",
          "type": "address"
        },
        {
          "indexed": true,
          "internalType": "address",
          "name": "tokenIn",
          "type": "address"
        },
        {
          "indexed": true,
          "internalType": "address",
          "name": "tokenOut",
          "type": "address"
        },
        {
          "indexed": false,
          "internalType": "uint256",
          "name": "amountIn",
          "type": "uint256"
        },
        {
          "indexed": false,
          "internalType": "uint256",
          "name": "amountOut",
          "type": "uint256"
        }
      ],
      "name": "SwappedTokenToToken",
      "type": "event"
    },
    {
      "inputs": [],
      "name": "ETH_ADDRESS",
      "outputs": [
        {
          "internalType": "address",
          "name": "",
          "type": "address"
        }
      ],
      "stateMutability": "view",
      "type": "function"
    },
    {
      "inputs": [],
      "name": "FEE_BPS",
      "outputs": [
        {
          "internalType": "uint256",
          "name": "",
          "type": "uint256"
        }
      ],
      "stateMutability": "view",
      "type": "function"
    },
    {
      "inputs": [
        {
          "internalType": "address",
          "name": "token",
          "type": "address"
        },
        {
          "internalType": "uint256",
          "name": "amount",
          "type": "uint256"
        }
      ],
      "name": "addLiquidity",
      "outputs": [],
      "stateMutability": "nonpayable",
      "type": "function"
    },
    {
      "inputs": [],
      "name": "addLiquidityETH",
      "outputs": [],
      "stateMutability": "payable",
      "type": "function"
    },
    {
      "inputs": [
        {
          "internalType": "address",
          "name": "tokenIn",
          "type": "address"
        },
        {
          "internalType": "address",
          "name": "tokenOut",
          "type": "address"
        },
        {
          "internalType": "uint256",
          "name": "amountIn",
          "type": "uint256"
        }
      ],
      "name": "getAmountOut",
      "outputs": [
        {
          "internalType": "uint256",
          "name": "amountOut",
          "type": "uint256"
        },
        {
          "internalType": "uint256",
          "name": "fee",
          "type": "uint256"
        }
      ],
      "stateMutability": "view",
      "type": "function"
    },
    {
      "inputs": [
        {
          "internalType": "address",
          "name": "",
          "type": "address"
        }
      ],
      "name": "liquidity",
      "outputs": [
        {
          "internalType": "uint256",
          "name": "",
          "type": "uint256"
        }
      ],
      "stateMutability": "view",
      "type": "function"
    },
    {
      "inputs": [],
      "name": "owner",
      "outputs": [
        {
          "internalType": "address",
          "name": "",
          "type": "address"
        }
      ],
      "stateMutability": "view",
      "type": "function"
    },
    {
      "inputs": [
        {
          "internalType": "address",
          "name": "token",
          "type": "address"
        },
        {
          "internalType": "uint256",
          "name": "amount",
          "type": "uint256"
        }
      ],
      "name": "removeLiquidity",
      "outputs": [],
      "stateMutability": "nonpayable",
      "type": "function"
    },
    {
      "inputs": [],
      "name": "renounceOwnership",
      "outputs": [],
      "stateMutability": "nonpayable",
      "type": "function"
    },
    {
      "inputs": [
        {
          "internalType": "address",
          "name": "token",
          "type": "address"
        },
        {
          "internalType": "uint256",
          "name": "priceUSD18",
          "type": "uint256"
        }
      ],
      "name": "setTokenPrice",
      "outputs": [],
      "stateMutability": "nonpayable",
      "type": "function"
    },
    {
      "inputs": [
        {
          "internalType": "address",
          "name": "tokenOut",
          "type": "address"
        },
        {
          "internalType": "uint256",
          "name": "minAmountOut",
          "type": "uint256"
        }
      ],
      "name": "swapETHToToken",
      "outputs": [],
      "stateMutability": "payable",
      "type": "function"
    },
    {
      "inputs": [
        {
          "internalType": "address",
          "name": "tokenIn",
          "type": "address"
        },
        {
          "internalType": "uint256",
          "name": "amountIn",
          "type": "uint256"
        },
        {
          "internalType": "uint256",
          "name": "minAmountOut",
          "type": "uint256"
        }
      ],
      "name": "swapTokenToETH",
      "outputs": [],
      "stateMutability": "nonpayable",
      "type": "function"
    },
    {
      "inputs": [
        {
          "internalType": "address",
          "name": "tokenIn",
          "type": "address"
        },
        {
          "internalType": "address",
          "name": "tokenOut",
          "type": "address"
        },
        {
          "internalType": "uint256",
          "name": "amountIn",
          "type": "uint256"
        },
        {
          "internalType": "uint256",
          "name": "minAmountOut",
          "type": "uint256"
        }
      ],
      "name": "swapTokenToToken",
      "outputs": [],
      "stateMutability": "nonpayable",
      "type": "function"
    },
    {
      "inputs": [
        {
          "internalType": "address",
          "name": "",
          "type": "address"
        }
      ],
      "name": "tokenPrice",
      "outputs": [
        {
          "internalType": "uint256",
          "name": "",
          "type": "uint256"
        }
      ],
      "stateMutability": "view",
      "type": "function"
    },
    {
      "inputs": [
        {
          "internalType": "address",
          "name": "newOwner",
          "type": "address"
        }
      ],
      "name": "transferOwnership",
      "outputs": [],
      "stateMutability": "nonpayable",
      "type": "function"
    },
    {
      "stateMutability": "payable",
      "type": "receive"
    }
  ],
  "bytecode": "0x608060405234801561001057600080fd5b5060405161157238038061157283398101604081905261002f916100c2565b806001600160a01b03811661005e57604051631e4fbdf760e01b81526000600482015260240160405180910390fd5b61006781610072565b5050600180556100f2565b600080546001600160a01b038381166001600160a01b0319831681178455604051919092169283917f8be0079c531659141344cd1fd0a4f28419497f9722a3daafe3b4186f6b6457e09190a35050565b6000602082840312156100d457600080fd5b81516001600160a01b03811681146100eb57600080fd5b9392505050565b611471806101016000396000f3fe6080604052600436106100ec5760003560e01c80638da5cb5b1161008a578063b8c876b111610059578063b8c876b1146102ad578063bf333f2c146102da578063ed995307146102ef578063f2fde38b146102f757600080fd5b80638da5cb5b14610233578063a201ccf614610265578063a734f06e14610285578063a78de1621461029a57600080fd5b80634aa06652116100c65780634aa066521461018957806356688700146101c3578063715018a6146101e357806384ba3f69146101f857600080fd5b8063328976a2146101275780633ee2afc114610149578063431f63c91461016957600080fd5b36610122576000808052600360205260008051602061141c833981519152805434929061011a9084906111d2565b925050819055005b600080fd5b34801561013357600080fd5b50610147610142366004611201565b610317565b005b34801561015557600080fd5b50610147610164366004611234565b610598565b34801561017557600080fd5b50610147610184366004611276565b610842565b34801561019557600080fd5b506101a96101a43660046112a0565b610866565b604080519283526020830191909152015b60405180910390f35b3480156101cf57600080fd5b506101476101de366004611276565b6109ba565b3480156101ef57600080fd5b50610147610a47565b34801561020457600080fd5b506102256102133660046112dc565b60026020526000908152604090205481565b6040519081526020016101ba565b34801561023f57600080fd5b506000546001600160a01b03165b6040516001600160a01b0390911681526020016101ba565b34801561027157600080fd5b50610147610280366004611276565b610a5b565b34801561029157600080fd5b5061024d600081565b6101476102a8366004611276565b610bdc565b3480156102b957600080fd5b506102256102c83660046112dc565b60036020526000908152604090205481565b3480156102e657600080fd5b50610225601e81565b610147610df4565b34801561030357600080fd5b506101476103123660046112dc565b610ea1565b61031f610edf565b6000821161036f5760405162461bcd60e51b81526020600482015260186024820152770537761703a20416d6f756e74206d757374206265203e20360441b60448201526064015b60405180910390fd5b6001600160a01b0383166103bd5760405162461bcd60e51b815260206004820152601560248201527429bbb0b81d1024b73b30b634b2103a37b5b2b724b760591b6044820152606401610366565b60006103cb84600085610866565b509050818110156103ee5760405162461bcd60e51b8152600401610366906112f7565b8047101561043e5760405162461bcd60e51b815260206004820181905260248201527f537761703a20496e73756666696369656e7420455448206c69717569646974796044820152606401610366565b6104536001600160a01b038516333086610f09565b6001600160a01b0384166000908152600360205260408120805485929061047b9084906111d2565b90915550506000808052600360205260008051602061141c83398151915280548392906104a990849061132e565b9091555050604051600090339083908381818185875af1925050503d80600081146104f0576040519150601f19603f3d011682016040523d82523d6000602084013e6104f5565b606091505b50509050806105425760405162461bcd60e51b815260206004820152601960248201527814ddd85c0e88115512081d1c985b9cd9995c8819985a5b1959603a1b6044820152606401610366565b60408051858152602081018490526001600160a01b0387169133917f31e14a2938ea17670c6f8b5e72aeb4dfaf89eaf79576fda6cc6e041a75a3001e910160405180910390a3505061059360018055565b505050565b6105a0610edf565b600082116105eb5760405162461bcd60e51b81526020600482015260186024820152770537761703a20416d6f756e74206d757374206265203e20360441b6044820152606401610366565b826001600160a01b0316846001600160a01b03160361063f5760405162461bcd60e51b815260206004820152601060248201526f29bbb0b81d1029b0b6b2903a37b5b2b760811b6044820152606401610366565b6001600160a01b0384161580159061065f57506001600160a01b03831615155b6106ab5760405162461bcd60e51b815260206004820152601760248201527f537761703a20557365204554482066756e6374696f6e730000000000000000006044820152606401610366565b60006106b8858585610866565b509050818110156106db5760405162461bcd60e51b8152600401610366906112f7565b6040516370a0823160e01b815230600482015281906001600160a01b038616906370a0823190602401602060405180830381865afa158015610721573d6000803e3d6000fd5b505050506040513d601f19601f820116820180604052508101906107459190611341565b10156107635760405162461bcd60e51b81526004016103669061135a565b6107786001600160a01b038616333086610f09565b6001600160a01b038516600090815260036020526040812080548592906107a09084906111d2565b90915550506001600160a01b038416600090815260036020526040812080548392906107cd90849061132e565b909155506107e790506001600160a01b0385163383610f70565b60408051848152602081018390526001600160a01b03808716929088169133917f3459f9c2751acc89caa003776dd872ce50d16428267ab8f3a425ee73d3370191910160405180910390a45061083c60018055565b50505050565b61084a610fa1565b6001600160a01b03909116600090815260026020526040902055565b600080806001600160a01b03861615610897576001600160a01b0386166000908152600260205260409020546108c3565b6000805260026020527fac33ff75c19e70fe83507db0d683fd3465c996598dc972688b7ace676c89077b545b905060006001600160a01b038616156108f4576001600160a01b038616600090815260026020526040902054610920565b6000805260026020527fac33ff75c19e70fe83507db0d683fd3465c996598dc972688b7ace676c89077b545b90506000821180156109325750600081115b6109745760405162461bcd60e51b815260206004820152601360248201527214ddd85c0e88141c9a58d9481b9bdd081cd95d606a1b6044820152606401610366565b612710610982601e87611391565b61098c91906113a8565b9250808261099a858861132e565b6109a49190611391565b6109ae91906113a8565b93505050935093915050565b6109c2610fa1565b6109d76001600160a01b038316333084610f09565b6001600160a01b038216600090815260036020526040812080548392906109ff9084906111d2565b90915550506040518181526001600160a01b038316907fc17cea59c2955cb181b03393209566960365771dbba9dc3d510180e7cb312088906020015b60405180910390a25050565b610a4f610fa1565b610a596000610fce565b565b610a63610fa1565b6001600160a01b038216600090815260036020526040902054811115610a9b5760405162461bcd60e51b81526004016103669061135a565b6001600160a01b03821660009081526003602052604081208054839290610ac390849061132e565b90915550506001600160a01b038216610b7b57600080546040516001600160a01b039091169083908381818185875af1925050503d8060008114610b23576040519150601f19603f3d011682016040523d82523d6000602084013e610b28565b606091505b5050905080610b755760405162461bcd60e51b815260206004820152601960248201527814ddd85c0e88115512081d1c985b9cd9995c8819985a5b1959603a1b6044820152606401610366565b50610ba1565b610ba1610b906000546001600160a01b031690565b6001600160a01b0384169083610f70565b816001600160a01b03167fc2c3f06e49b9f15e7b4af9055e183b0d73362e033ad82a07dec9bf984017171982604051610a3b91815260200190565b610be4610edf565b60003411610c285760405162461bcd60e51b815260206004820152601160248201527014ddd85c0e88139bc8115512081cd95b9d607a1b6044820152606401610366565b6001600160a01b038216610c775760405162461bcd60e51b8152602060048201526016602482015275537761703a2055736520455448206469726563746c7960501b6044820152606401610366565b6000610c8560008434610866565b50905081811015610ca85760405162461bcd60e51b8152600401610366906112f7565b6040516370a0823160e01b815230600482015281906001600160a01b038516906370a0823190602401602060405180830381865afa158015610cee573d6000803e3d6000fd5b505050506040513d601f19601f82011682018060405250810190610d129190611341565b1015610d305760405162461bcd60e51b81526004016103669061135a565b6000808052600360205260008051602061141c8339815191528054349290610d599084906111d2565b90915550506001600160a01b03831660009081526003602052604081208054839290610d8690849061132e565b90915550610da090506001600160a01b0384163383610f70565b60408051348152602081018390526001600160a01b0385169133917fc40d836578f92a82827234cb38d14477c6db5f41b547a15ffe8dabcefe82c60d910160405180910390a350610df060018055565b5050565b610dfc610fa1565b60003411610e3b5760405162461bcd60e51b815260206004820152600c60248201526b0a6eec2e074409cde408aa8960a31b6044820152606401610366565b6000808052600360205260008051602061141c8339815191528054349290610e649084906111d2565b90915550506040513481526000907fc17cea59c2955cb181b03393209566960365771dbba9dc3d510180e7cb3120889060200160405180910390a2565b610ea9610fa1565b6001600160a01b038116610ed357604051631e4fbdf760e01b815260006004820152602401610366565b610edc81610fce565b50565b600260015403610f0257604051633ee5aeb560e01b815260040160405180910390fd5b6002600155565b6040516001600160a01b03848116602483015283811660448301526064820183905261083c9186918216906323b872dd906084015b604051602081830303815290604052915060e01b6020820180516001600160e01b03838183161783525050505061101e565b6040516001600160a01b0383811660248301526044820183905261059391859182169063a9059cbb90606401610f3e565b6000546001600160a01b03163314610a595760405163118cdaa760e01b8152336004820152602401610366565b600080546001600160a01b038381166001600160a01b0319831681178455604051919092169283917f8be0079c531659141344cd1fd0a4f28419497f9722a3daafe3b4186f6b6457e09190a35050565b60006110336001600160a01b03841683611081565b9050805160001415801561105857508080602001905181019061105691906113ca565b155b1561059357604051635274afe760e01b81526001600160a01b0384166004820152602401610366565b606061108f83836000611098565b90505b92915050565b6060814710156110bd5760405163cd78605960e01b8152306004820152602401610366565b600080856001600160a01b031684866040516110d991906113ec565b60006040518083038185875af1925050503d8060008114611116576040519150601f19603f3d011682016040523d82523d6000602084013e61111b565b606091505b509150915061112b868383611137565b925050505b9392505050565b60608261114c5761114782611193565b611130565b815115801561116357506001600160a01b0384163b155b1561118c57604051639996b31560e01b81526001600160a01b0385166004820152602401610366565b5080611130565b8051156111a35780518082602001fd5b604051630a12f52160e11b815260040160405180910390fd5b634e487b7160e01b600052601160045260246000fd5b80820180821115611092576110926111bc565b80356001600160a01b03811681146111fc57600080fd5b919050565b60008060006060848603121561121657600080fd5b61121f846111e5565b95602085013595506040909401359392505050565b6000806000806080858703121561124a57600080fd5b611253856111e5565b9350611261602086016111e5565b93969395505050506040820135916060013590565b6000806040838503121561128957600080fd5b611292836111e5565b946020939093013593505050565b6000806000606084860312156112b557600080fd5b6112be846111e5565b92506112cc602085016111e5565b9150604084013590509250925092565b6000602082840312156112ee57600080fd5b61108f826111e5565b60208082526017908201527f537761703a20536c69707061676520746f6f2068696768000000000000000000604082015260600190565b81810381811115611092576110926111bc565b60006020828403121561135357600080fd5b5051919050565b6020808252601c908201527f537761703a20496e73756666696369656e74206c697175696469747900000000604082015260600190565b8082028115828204841417611092576110926111bc565b6000826113c557634e487b7160e01b600052601260045260246000fd5b500490565b6000602082840312156113dc57600080fd5b8151801515811461113057600080fd5b6000825160005b8181101561140d57602081860181015185830152016113f3565b50600092019182525091905056fe3617319a054d772f909f7c479a2cebe5066e836a939412e32403c99029b92effa2646970667358221220c9deb22bb257289f8dc5560f10b0115e56286c49e8ce0db4ed68c2742badaa7164736f6c63430008180033",
  "linkReferences": {},
  "deployedLinkReferences": {}
}